:1000000065C974C973C972C971C970C96FC96EC92C
:100010006DC96CC96BC96AC969C968C967C900007B
:10002000187EB0F0F0B8FCEEC0C0C080000028849C
:100030000000FFE78100010707030100111F1F3FB8
:100040007FC301017BFF000C06434361310E0F1F8C
:10005000334D5F7F5C08040A0000E2E13008180CB1
:1000600080C0E0C00000000000A3E0E0F0FF00005E
:1000700060103024FC2430106000FF9F0F87830144
:10008000010183870F9F00000C346AE80FE86A348F
:100090000C00FFF3C181000000000081C1F30000EB
:1000A0000010382F202F38100000FFFFEFC780808E
:1000B000808080C7EFFF000000FCDCDCDCDCDCDCE7
:1000C000DCDCDCDCDCDCDCDCDCFC00000000FFFF7A
:1000D0000101010101010101010101010101010110
:1000E000010101FFFFFF0070507571757175717529
:1000F000F13531F571757175717550700000070338
:1001000000000000000000000000000000000000EF
:100110000000000307FF00775577777777777777C9
:10012000777676777777777777775577000000005F
:1001300000000000000000000000000000000000BF
:100140000000000000FF0000804040404040404070
:100150004040404040404040404080000000FF7F21
:100160003F1F1F1F1F1F1F1F1F1F1F1F1F1F1F1F7F
:100170001F1F3F7FFFFF0077577777777777778766
:10018000276727877777777777775777000000009B
:10019000000000000000000000000000000000005F
:1001A0000000000000FF0077557777777777777743
:1001B00076767677777777777777557700000000D0
:1001C000000000000000000000000000000000002F
:1001D0000000000000FF00003C3C3C3C3C3C0000B8
:1001E000000000000000000000000000000000000F
:1001F00000000000000000000000000000003C3C87
:100200003C3C3C3C000000000000000000000000FE
:10021000000000000000000000008040A0A010C00E
:10022000D0E800E8ECE60CEAECE800E8D0C010A06A
:10023000A04080000000FFFFFF7F3F1F0F0F070758
:100240000703030301000100010303030707070F6E
:100250000F1F3F7FFFFF000000C500D7C7EF02FF61
:10026000FFFF10FFFFFF01FFFFFF80FFFFFF00FF09
:10027000FFFF00F70000FFC70400000000000000BF
:10028000000000000000000000000000000000006E
:100290000000000000FF000000B800FAF8FD80FF39
:1002A000FFFF00FFFFFF10FFFFFF00FFFFFF04FF46
:1002B000FFFF00DE0100FFF800000000000000006A
:1002C000000000000000000000000000000000002E
:1002D0000000000001FF0000007B00FFFFFF00FFA7
:1002E000FFFF08FFFFFF00FFFFFF0FF9F9F999E19A
:1002F000E1FF007B8000FFFF000000000000000025
:1003000000000000000000000000000000000000ED
:100310000000000080FF0000003700BF3F7F04FFA7
:10032000FFFF00FFFFFF00FFFFFF00FFFFFF00FFD9
:10033000FFFF00778000FF3F00000000000000008A
:1003400000000000000000000000000000000000AD
:100350000000000080FF0000004600D6C6EF40FF0E
:10036000FFFF01FFFFFF10FFFFFF01FFFFFF08FF7F
:10037000FFFF00770000FFC68200000000000000C1
:10038000000000000000000000000000000000006D
:100390000000000000FF00000007080D0D0D0C0D0F
:1003A000010D0C0D0D0D000D0D0D0E0D010D0C0DA3
:1003B0000D0D08070000FFFFE0E0E0E0E0E0E0E016
:1003C000E0E0E0E0E0E0E0E0E0E0E0E0E0E0E0E02D
:1003D000E0E0E0E0E0FF0000FEFEC0C0C0C0FEFEC6
:1003E000C0C0C0C0FEFEC0C0C0C0FEFEC0C0C0C015
:1003F000FEFEFF010000011F1F0100003F3F3F3FC5
:1004000000003F3F3F3F0000011F1F0100000000B0
:10041000FFFF00000000FFFF00000000FFFF0000E2
:100420000000FFFF00000000FFFFFF00000000FED3
:10043000FE000000FFFFFFFF0000FFFFFFFF0000C6
:1004400000FEFE0000000000FFFF00000000FFFFB4
:1004500000000000FFFF00000000FFFF00000000A0
:10046000FFFFFF00000000FFFF000000FFFFFFFF95
:100470000000FFFFFFFF000000FFFF000000000082
:10048000FFFF00000000FFFF00000000FFFF000072
:100490000000FFFF00000000FFFFFF00000000FF62
:1004A000FF000000FFFFFFFF0000FFFFFFFF000055
:1004B00000FFFF0000000000FFFF00000000FFFF42
:1004C00000000000FFFF00000000FFFF0000000030
:1004D000FFFFFF000000007F7F000000FFFFFFFF25
:1004E0000000FFFFFFFF0000007F7F000000000012
:1004F0003F3F030303033F3F030303033F3F030364
:1005000003033F3F030303033F3FFFC08080C0F866
:10051000F8C08080FCFCFCFC8080FCFCFCFC808043
:10052000C0F8F8C0808038448239293982443800C4
:1005300000384482392939824438708804725272F2
:10054000048870000000C783010000000183C7FF1A
:10055000FFC783010000000183C78F07030101016A
:1005600003078FFFFFFF000003041860830C30C0F7
:100570000000C03F00807E0180601804C330080482
:10058000030000000000FFFFFCF8E08000030F3FC5
:10059000FFFF3F00000080FE7F1F070300C0F0F850
:1005A000FCFFFFFFFFFF0000000000008146483015
:1005B000331C131C10111E1E11302C2340408000D0
:1005C000000000000000FFFFFFFFFFFF7E3830004B
:1005D00000030C00000001010000101C3F3F7FFFE2
:1005E000FFFFFFFFFFFFC030080482E1E0E8E4D432
:1005F000963673F3F3FB9BCBF3F2F6E4EC6860E121
:1006000082040830C0003F0F070301000000000013
:1006100000000000000000000000000000000000DA
:100620000103070F3FFF450000FEFFEFE7F7F3FB75
:10063000FBFFE140C0C040E1FFEDEDCDDC9EBFFF20
:10064000FFFE000045000000000000000000000068
:10065000000000000000000000000000000000009A
:100660000000000000FF071820408307072F6F4796
:10067000D3D9DCDEDFDFDED8D3DFDF4F6F2F070318
:10068000834020180700F8E0C08000000000000050
:10069000000000000000000000000000000000005A
:1006A0000080C0E0F8FF0000000000010204040820
:1006B0000808111111111111110808080404020190
:1006C000000000000000FFFFFFFFFFFEFCF8F8F055
:1006D000F0F0E0E0E0E0E0E0E0F0F0F0F8F8FCFE60
:1006E000FFFFFFFFFFFF36406C6E747C2C606CD800
:1006F0005818F0C0F0D0E0B0D8D860185C7C606CBE
:100700006E6E0E6E77767036073F3F1F0A1A18021C
:100710000A0E0E06080B1A181A06173D3F3E787689
:100720000667E4DC80D0B0B0C018EC68003616086C
:100730000A0A0A1634366EE4E2EE0E6EECE0E6EEDD
:100740000E4EE6E0E6EE0E6EECE0EE8E4E0D62EC46
:10075000EEEE0E60EEEEEE660EE0ECEECE0E6CE02F
:10076000EEEEE08040C0C0C080808000000000004D
:10077000000000000000808080800080C0C0C0E0D9
:100780007B7F7A7B3B47777F7174777F7D7F7F604C
:1007900076775F7D774737707B7B7B5B7F7BDFFF87
:1007A000EFEF0BEFEFEFFEF0F6FEE50F7FF7DFFF69
:1007B000F2F4FEEBEB0FEFFEF1FFFECE03020301BE
:1007C0000001010101010000000000000000000024
:1007D00001000000010102020303FCF800F060C008
:1007E000C0800000000000008080C0E0E000F8FC55
:1007F00000F9FCDDFB33C3F7D0770EAEF196F7F8C6
:10080000F30BFCFDEDFE7E3EBE9ED6DE1CE8E6EE62
:100810006E4EEEE05E9EDEA6B02E7F7E001F0F0FB6
:100820000603000100000000000000020307030CA3
:100830001F37FEFEBEFE7E7C007C7CFEFEF6FEFECA
:10084000DE7E7C0078FEFEFEFEFEFEFE7E7C1880D4
:10085000FCFEFEDEEEFEFEFEFEFE7C001CFE3C7C90
:100860007C7E7E7F7F7E7C30083C7E7E7E7E7E6EC0
:100870007E7E3E0C307C7E7E7E7E7E7C7D39003CA2
:100880007C7E7E7E7E6C6E763E007F7F7F3E001E8D
:100890007F7F7F7F7F777F7E3E003C7F7F7F7F777C
:1008A0007F7F7F7F3C003C7E7F7F7F7F7F3F3F1E3F
:1008B000003E6E7F7F7F007E7B777F7F7F7F7F3CE8
:1008C000003E7E7F7B7F7F3F3F7F7E003C7F7F7F40
:1008D000777F7F7F7F3E003E7F7F7F5F7F777F7F59
:1008E0007E3CF0F0E0C0800000000000000000004E
:1008F00000000000000000000000000000000000F8
:10090000000000000000000080C0C08000E0FDF793
:10091000FFFF1FC0FCFE9EFCFCF800C0E0C0C080D2
:1009200000000000000000000000C0E0F0F0F00057
:10093000F8FEFFD7FFFFFF1867FFFC01F9FDF8F98C
:10094000F3F7F7EFEFE3189FDDBBBF9F003F7EFC9F
:10095000FC007E77BF808FDFDD1F8FC0E1F3F7F7EC
:10096000F303F1F8FCFE013E7F7F7F7D7B7F7F7F7D
:100970003F07387F7F777D7F7F7FFF3EFE7F003F91
:100980007F7F7F773F003F7F7F7D7E7F3F30033FCC
:100990007F7F3FFFFFFFFE00FCFEEFDFFFFFFE005B
:1009A000FEFFFFFDDF7E38060E70FEFFEFFFFE004C
:1009B000FCFEBFFFFFFF3EC0FE7F7FFFFFFF1F1F4C
:1009C0009FCFE7E0E3F7F707E7F3B9F8F001FDFEA3
:1009D000FEDE7F3F3F7E0070FEBDFCFCF003C3E700
:1009E000F7F7E0E3E7CF9F1F1DBF00FFF7FFFFFF13
:1009F000F7FF7F001F1F0F07030003010000000027
:100A0000000000000101030707000F3F3E7FFFE7E2
:100A1000FFFF7F00FFFF0007070303010000000046
:100A200000000000000000000000000000000000C6
:100A300000000000000000000000000001000000B5
:100A4000070F0080E0F0F070F8F8F8F8F8F8F0F030
:100A5000F0F0F0F0E0C00000C0E0F0F0F0F0F8F8E6
:100A6000F8F8F8F0F0F0F0F0F0E0C0000080E0E01E
:100A7000F0F0F0F0F8F8F8F8F8F878F0F0F0F0E0CE
:100A8000C0C00000C0E0F0F0F0F0F8F8F8F8F8F8B6
:100A9000F8F8F8F8F0F0F0E0C00078FFFFFFFCFF96
:100AA000FFFFFFFFFFFFFFFFFFFFFF7F3F07007814
:100AB000F3F7EFEFFFFFFFFFFFFFFFFFFFFFFFFF7A
:100AC000FFFFFF7C00037FFFFFFFFFFFFFFFF7FF3C
:100AD000FFFFFFFEFFFFFFFFFFFF7800077FFFFF25
:100AE000FFFFFEFEFDFBFFFFFFFFFFFFFFFFFF3FDE
:100AF0000300FCFCF8F10101F1F9FDFDFDFCFCFC3B
:100B0000FEFEFEFEFEFEFEFCDCDCFDFDF9F1010159
:100B1000E1F1F9F9F9FDFD3DFDFDFCFCFCFCFCFCFF
:100B2000FCF9F9F1E10101E1F1F9F9FDFDFDFDFD4E
:100B3000FDBCC8FCFCFCFCF8F9F10101F1F9F9FD80
:100B40007D7DFDFDFDFCF8F8F8FC3F3F3F9F808078
:100B50008F1F3F3F776F7FFFFFFF7F7F7F7F7F7F0D
:100B60007F7F7F7F3F3F1F00001F3F3F7F7F7F7F53
:100B70007E7D7F7B7F7F7F7F7F3F3F1F01000E3F1A
:100B80007F7F7F7F7F7F7FFFFFFFFF7F7F7F7F7F75
:100B90007F3F3E30030F1F7F7F7F7E7F7F7F7F3FC2
:100BA0003F3FFFFFFFFFFFFFFFFFFEFEEEFEFCF8F3
:100BB0000000C0E0F8FCFCFCFEFEFEFEFFFFEFDFE5
:100BC000DF7FFFFFFFFFFFFFFE7C0000FCFCFEFE5F
:100BD000FEFEFEFFFFFFFFFFFFFFFEFEFEFE1C000E
:100BE000C0F8FCFEFEFEFEFEBEDEDFEFEFEFFFFF15
:100BF000FFFEFEFEFC0000F8FCFE9F9E9E9D9F9F58
:100C00009F1F1F0F0F87C3C1E0E0C3878F1F1F1FE8
:100C10009F9F9FBF3F3F3F3F3F3F3F3F1F1F1F8F54
:100C2000878080878F8F9F9F9F9F9F8F97171B1F06
:100C30001F1F1F1F8F878080878F8F9F9F9F9FBF42
:100C4000BF3F3F3F7F7F7F3F1F1F0F0780808E9FEB
:100C5000BFBFFFFFFFFF7FFFFFFF0EC0FFFFFFFBD8
:100C6000F7FFFFFFFFFFFFFFFFFFFFFFFFFFFFFF9C
:100C7000FEE0C00E1FFFFFFFFFFFFFFFFFFFFFBFF4
:100C80007F7FFFFFFFFFCE000078FEFFFFFFFBFF2F
:100C9000FFFFFFFBFFFFFFFFFF7FFFFFFEFCFC38B6
:100CA00000C0FEFFFFFFFFFFFFEF0F0F1F1F1F1F03
:100CB0001F1F0C0003070F0F0F07070707070F0F72
:100CC0000F1F1F1F0F0F0F0E070703000003070F53
:100CD0001F1F1F1F1F1F0F1F1F1F1F0F0F0F070398
:100CE0000000010F0F1F1F1F1F1F1F1F1F0F0F0FC0
:100CF0000F0F0F070703000003070F0F0F0F0F1F42
:100D00001F1FFFFEFCF8F8FCFEFF3F7FFFFDFFFD0D
:100D10007F3FFE7FBEFE7EFEFFFE7F7F7F3F7F7CAC
:100D20007F3FFEFFFFFFF7FFFEFC3F7FBF3EBFBFE1
:100D30003F0FFEFFFFFFFFFFFFFE7F7E3F0F1E3EC8
:100D40007F7FAE2000B0C8001040813FA1A6A83F21
:100D5000A4D300D5F0D922DA12DB208D14AF0458C9
:100D60007800150007587800120007785800120024
:100D70001480A00114A01680A04016A02CC8C88022
:100D80002CC84058780012004078580012E868805B
:100D9000A00268A06E80A0146EA077587800F700BB
:100DA00077785800F700C0587800C300C078580022
:100DB000C4E8C780A009C7A0C8580000CA00CB3843
:100DC0000000CB00F158780091E8F17858009100CC
:100DD000F3587800C3E8F3785800C400FD58780051
:100DE0007D00FD7858004D0001B7050D01D7050BBA
:100DF000022A02000252010002870300302C03FA8B
:100E00000100182C03FC01003C6C28070100532C46
:100E100005FC01006D4C0F040060874C0C03006062
:100E2000A38C0FFF0130AB8C0F010070E34C0C035F
:100E30000060ED4C0C0300601818181858181800C2
:100E400018180000000000180000E8008018801842
:100E500000180018181800180000180018181800BA
:100E600000180018C818001800180000180000002A
:100E7000181800180018001858180018000018005A
:100E80000018001800E800181800000018001800EA
:100E9000001800181818181800001800000018187A
:100EA00080180000000080E8181800001818185872
:100EB0001818181818E8181818000000180018005A
:100EC000180018000000000018001810180000009A
:100ED000000018E818001800180018801800180002
:100EE0001800180018000000180000181800000072
:100EF0000000181800001800581810E8E8001880C2
:100F00005800003800180000000000181800000009
:100F10000000180000180018181800001800180029
:100F20001800180018000000005818581800000099
:100F300000001818185818004C1C10283801020519
:100F40007E106C200038400102052605E81C0830A0
:100F500038010205D603382008384001030C160278
:100F60005810180820010208F6017810180820010E
:100F70000208D601801820183001036346018C183E
:100F80002018300103634601A018201830010363C4
:100F9000B600C80C2018180102636E002C1428102B
:100FA000280102631E00020D00030700FF00080273
:100FB0000D5C5F0700010408420A00030701FF54AB
:100FC00058420A045B0701000058420A5C5F0701AF
:100FD000010058E20804190701FF002CE208465BF3
:100FE000070101162C320800192502FF122C3208C5
:100FF0001A45250200002C3208465F250201002C0C
:10100000DA071A242502FF0016DA073B45250201FC
:101010000B166207000E2502FE001E6207515F25B7
:1010200002020F1E3607000E3403FE071636070FA6
:10103000243403FF00163607253A34030000163621
:10104000073B5034030100163607515F340302009A
:1010500016220725293403FF000A2207363A3403F3
:1010600001050AE6060F1D3403FE001EE606425087
:101070003403020F1E00000000000000000000000A
:1010800080000000000000000000E0F03838FCFCA8
:101090003C38F8E0000000000000FFFF7FFFFFFF8A
:1010A000FFFFFFFFFF0F070303010101010103031E
:1010B0000FFFFFFFFFFF3EC1003FC0000000000028
:1010C0000000010F0F29AF290F0F070700000000D4
:1010D0000000C10000003FFFFFFFFFFFFFFE706048
:1010E0004000000040607070F8FFFFFFFFFF000746
:1010F0007880037C80800080F03C077DF55503F903
:10110000D93577137630D8F80000FFF88000000357
:101110007F7F7F07010080000000000000000000CA
:101120000001030303FF0000040B0A081010060F60
:10113000010000085D13000F183066696630180F53
:101140000000FFFFFBF0F0F0E0E0E0E0E0FCE32275
:101150000000E0C000000000000080C0E0FF0000D0
:101160000000000000000000004060202D00000092
:10117000002D2060400000000000FFFFFFFFFFFF88
:10118000FFFFFFFFBF1F0F8080C0FFFFC080800FE9
:101190001FBFFFFFFFFF20383E38203E1C1C080801
:1011A000020E3E0E0208081C1C3E08040408101023
:1011B00008040408143E2200000000000000223E43
:1011C0001408040408101008040400018181BF8180
:1011D000B50139083181B9A0F9010100010100010F
:1011E00001000101000100010000002008280F2873
:1011F00028072026082E202E022C20242A1E000C30
:101200001614000E121C001E021CBB0100113979BD
:10121000F079391100010101000101010001010112
:1012200000010101000101010077BB001C1C1C1C16
:101230001C1C1C1C1C1C1C1C1C1C1C1C1C1C1C1CEE
:101240001C1C1C1C1C1C1C1C0077BB002830182CF0
:1012500006001E225E221E000629512906001C22BD
:101260002A221C00077D57000077BB0000003F408A
:101270003F00BA0098A42484BFA418A4A498803C7A
:101280008884809CA07C00000077BB8080008080E8
:10129000800080808000808080008080800098A016
:1012A0009800BE80A000BE8080770001010201028C
:1012B00002030102020302030304000103000F0002
:1012C00007050400000203000102040011241FBEF0
:1012D000CFE5D2E0DEBFCDBF21E0A0E6B0E001C0A7
:1012E0001D92A63AB207E1F741D3B0C589C6C298AC
:1012F000C098C29AC09A089530E020E090E0AC0116
:10130000022E01C0440F0A94EAF747FF0CC0C09AAE
:10131000C29AC2982F5F3F4F2830310581F7C09A9B
:10132000C29AC2980895C098F3CFC29AC09AC09842
:10133000C2980895CF93C82FF8DF88E7DDDF80E0FB
:10134000DBDF8C2FD9DFCF91D2CF3F924F925F92CC
:101350006F927F928F929F92AF92BF92CF92DF92C5
:10136000EF92FF920F931F93CF93DF93762FE901B4
:10137000C884D984002319F09981C90ED11C50E08A
:10138000FA01E953FD4E3491FA01ED53FD4E94916B
:10139000FA01E154FD4EE491A72F072E000CBB0B80
:1013A0009A171B0611F00CF07EC0EA171B060CF40E
:1013B0007AC04C0F5D1FFA015480632F2DD5A82EE3
:1013C000E32FF0E0E654FD4EA4917A806B80670C29
:1013D000872F891B632F660F660F660F1DD5482F59
:1013E000832F632F19D5482E68E0E62EF12C20E0DC
:1013F00011E0872C912C0A2C000CBB08B0E047159B
:1014000088F1461578F5842F90E08819990997FDA1
:10141000079653E0959587955A95E1F76C8170E0B2
:1014200090E003D58A0D9B1D8C0D9D1D70E060E042
:1014300050E0F42FF7703F2E6317C0F4FC01E60F65
:10144000F71FE491F0E0032C02C0F595E7950A94AC
:10145000E2F7EA23FB23E655FD4EE4915E0F6F5F52
:101460007F4FEACF542D011101C050E0430F5515B5
:1014700008F0212B110F81E0E81AF10809F0BFCF25
:10148000822FDF91CF911F910F91FF90EF90DF900E
:10149000CF90BF90AF909F908F907F906F905F9014
:1014A0004F903F900895202F2195EACFDC01FB015A
:1014B0008C9187FF02C0805F8C938C91803114F0F7
:1014C00080518C93808187FF02C0805F8083808100
:1014D000803114F08051808308950F93CF93DF9370
:1014E00000D0CDB7DEB7013059F130F0023021F134
:1014F000841B8983621B27C0641B6A83820F8983D4
:10150000BE016E5F7F4FCE010196D0DF8A81082E2B
:10151000000C990B24E0880F991F2A95E1F7298187
:10152000820F911D27FD9A9586599F4F0F900F901E
:10153000DF91CF910F910895640F6A83821BDFCFF3
:10154000840F8983620F6A83DBCF8F7787B987B176
:1015500087B9369A3699FECF84B195B1089586B38E
:101560008695817090E008952F923F924F925F92FE
:101570006F927F928F929F92AF92BF92CF92DF92A3
:10158000EF92FF920F931F93CF93DF93CDB7DEB708
:1015900064970FB6F894DEBF0FBECDBFD12CC12C1F
:1015A0001C8A5C2C80EB8C0DC5DE80E0C3DE80E104
:1015B000C1DEBBDE88E7A0DE80E49EDEB12CA12C7C
:1015C0004C2C3A2C9A2C96EAE92E9FE0F92E49E011
:1015D00050E0B701CE010B9616D48B859C85892BE4
:1015E00009F4BCC08D8598160CF4B4C08E8589159D
:1015F0000CF4B0C010916000809061000091620016
:1016000029894889682D812F68DFFC01808184FF4A
:10161000A1C08F85982F87FF02C09FE0980F9595F6
:1016200095959595959549160CF492C08F708415F3
:101630000CF48EC0180D11706B8960360CF081C0EF
:101640008D85E32DE81B8A89112309F477C08095E5
:10165000860F182F1E1B062E000C770B9601291BD8
:10166000310997FD3395C901E0D3810F911DEB85B9
:10167000FC85E80FF91F14918889E82EF12C2E2C97
:10168000E114F10409F46DC088E3682E8FE0782E30
:101690004AE050E0B301CE010196B5D38A80912C87
:1016A0000E2C02C0959487940A94E2F7C4019927FE
:1016B00020E330E0281B390BA216B30694F18F9675
:1016C0008A159B0574F10091620020E04E2D609117
:1016D00061008091600001DFFC0180818C7F998135
:1016E00089131FC080E38819832C881A01E09E01AA
:1016F0002F5F3F4F422D642D882D27DE982E182313
:1017000000E09E012F5F3F4F422D642D882D1DDE8E
:10171000F1E02F1205C090949091680099228925DC
:10172000182B2AE0620E711C36EA63163FE073063E
:1017300009F0AECF81E0E81AF108A1CF1E2F180FF3
:101740008ACF112319F01FE5131985CF132D83CFED
:1017500010E092CF39E0E30EF11C39CF83E010E0C6
:101760008CCF809167008127C7DD9FEFA91AB90A46
:10177000E0E6AE16B10409F024CFC60168E370E0DC
:1017800054D39C01205F3F4E59018C010C50104FE7
:101790003E2DEC89EE0D40916600842F81708529E5
:1017A00020E0B9F0F0E0E655FE4E2491511011C052
:1017B00082EF8E0D853068F48091620090E065E0E4
:1017C00070E033D38E0D9F1DFC01E857FE4EE4916F
:1017D0002E2B509163008FEF830F8E31E8F584E05C
:1017E000581216C0852F57FF02C081E0850F8595DE
:1017F000082E000C990BB7016250710986179707E4
:101800000CF420E08091690028271516BCF129C04E
:1018100095E059121AC03130C1F3383020F445FD3B
:10182000F4CF20E0F2CF3E3018F446FDEECFF9CFF2
:10183000343118F441FDE9CFF4CF3A3118F442FDC8
:10184000E4CFEFCF43FDE1CFECCFE6E05E1204C082
:10185000440F440B2423D9CF151684F0F2E0F5157C
:1018600068F432503C3150F4F501EE19FF09E4916F
:101870002E23F801EE19FF09E4912E2B822F3CDD77
:101880002FEFE21AF20A30E2E316F10409F080CFFA
:101890008C89805E8C8B2BDD9FEFC91AD90AE8E01A
:1018A000CE16D10409F07DCE109268001092690026
:1018B00064960FB6F894DEBF0FBECDBFDF91CF9117
:1018C0001F910F91FF90EF90DF90CF90BF90AF905E
:1018D0009F908F907F906F905F904F903F902F9050
:1018E0000895815028F095E09A95F1F70000F9CF1E
:1018F00008951F93CF93DF93162FC0E0D82FD09574
:10190000C49A8D2FEEDFC4988D2FEBDFCF5F1C13B1
:10191000F7CFDF91CF911F910895FC0192B79830D6
:1019200010F09750FCCF838120916500821B890FB6
:1019300018165CF490916300981B909363006AE022
:1019400082E3D7DF8FEF809369000ECE61E084E6FB
:10195000D0DF61E088ECCDDF2FEF81EE94E0215005
:1019600080409040E1F700C000000895CF93DF93DE
:1019700000D000D000D0CDB7DEB783E08ABD83BFF2
:10198000789480E48CBD8FEF8DBD87EC80BF87E8B5
:1019900086B987B3857D87BBBC9AB89ABA9A02E4A8
:1019A0001DE0F8018491C6DC0F5F1F4FFDE00E358E
:1019B0001F07B9F740E6642E40E0742E56E4C52EAA
:1019C000DD24D3945524539468EEA62E6DE0B62EF4
:1019D0007CEF872E7DE0972EF301C60111920197CF
:1019E000E9F75092600050926100509262009AE0D4
:1019F00090936300E3E0E093640040E051E068E32B
:101A00007EE08AE690E0FFD14CE350E06CEF7DE0B1
:101A10008AE691E0F8D1EAE6F1E08181A081B0E0C8
:101A2000A05ABF4F1A968C93369621E0E63AF207F9
:101A3000A1F71ABC53BE8091630018160CF0D9C1EF
:101A40008091660085FF03C09AE09093640086FF52
:101A500003C0E3E0E093650087DD0091620020E0D1
:101A600041E0609161008091600037DD7C018091F0
:101A7000670090916800892B90916900892B1092E2
:101A800067008111D8CF0091670080E85EDD8E5E2F
:101A90009240883C910580F111E0011101C010E0F5
:101AA00080E853DD855F9140893F910540F4809146
:101AB00062008F5F83708093620048DF11E083E8EB
:101AC00044DD855F9140893F910508F05EC0F701D4
:101AD000808183FD4EC03ADF39DF80916200813022
:101AE000F1F198F0823009F440C08091600081509B
:101AF00039C0112341F29FCF8091620081508370E1
:101B00008093620023DF11E0CBCF80916100815090
:101B1000809361004424439483E817DD8E5E9240F5
:101B2000883C910508F040C00091620020E04FEF32
:101B30006091610080916000D0DCFC01808183FDB8
:101B400071C004DF03DF80916200813031F1F8F071
:101B5000823009F463C0809160008F5F21C0809162
:101B600060008F5F80936000D5CF809161008F5FB0
:101B7000CFCF61E082E3BDDEFFEF21EE84E0F150E4
:101B800020408040E1F700C00000412CC5CF80918B
:101B900061008F5F8093610005C08091600081507B
:101BA000809360004424439461E670E080E690E016
:101BB0007DDC442009F44AC008EE1DE0FF24FA94BD
:101BC00044E050E0B801CE0101961DD12A818091F8
:101BD0006100082E000C990B34E0880F991F3A958C
:101BE000E1F730916000830F911D37FD9A9528171A
:101BF000190671F48B819981913009F58093600009
:101C00008C81809361008091660082FDF092670074
:101C10000C5F1F4F8016910699F60DCF80916100E1
:101C20008150B8CF61E082E364DEFFEF21EE84E013
:101C3000F15020408040E1F700C00000B5CF909106
:101C40006200890F837080936200DDCF88DC892B6E
:101C500009F04FCFF701308032FE46C0C7018A56E7
:101C600090400AE611E0F801908189130EC084814A
:101C7000882311F0C80151DE809163001816F4F436
:101C800082B7883028F08750FCCF0A5F1F4FEBCF18
:101C90002091640090E0820F911D27FD9A95F80134
:101CA0009281981B92836AE082E323DE8FEF809318
:101CB000680055DC892BE9F357DC56DCF80182819A
:101CC000181644F484818111B6CE8AEF0ADEC80169
:101CD00024DEB1CEF701108280916600F801958173
:101CE000892B80936600A7CE0EE51DE0F32DFC7FC7
:101CF0002F2E46E050E0B801CE01019684D08981B4
:101D000090E086599F4FE816F90609F06BC08A816A
:101D1000281268C09091660028E3321609F18C8180
:101D2000E0E83E1227C0982B90936600823059F06D
:101D3000442443949091660094FF42C022B7293016
:101D4000D8F02850FCCFEAE6F0E08191803119F418
:101D5000DF0111971C9221E0EA36F207B0F3E8CFD9
:101D600093FFE8CFF701108280916600877F809310
:101D70006600DECF892BFBCF80916300885F820FE6
:101D8000809363009051909366006EE184E6B1DD2C
:101D9000FFEF23EF81E0F15020408040E1F700C0E9
:101DA00000006EE184E6A5DD9FEFE9EFF0E09150E1
:101DB000E040F040E1F700C000006EE186E999DD07
:101DC000442061F08A81381A8B81382AF7013082E9
:101DD000ED81F0E0E05AFF4F8E8182876AE082E376
:101DE00088DD29CE0A5F1F4FA016B10609F081CF0A
:101DF00022CEF301C60111920197E9F7B5DBAFDB03
:101E0000892BE9F7E9CDFB01DC0102C005900D92B9
:101E100041505040D8F70895002480FD060E660F0B
:101E200011F08695D1F7802D08950024552704C020
:101E3000080E591F880F991F009729F0769567950E
:101E4000B8F37105B9F7802D952F0895F894FFCF59
:00000001FF
