:1000000065C974C973C972C971C970C96FC96EC92C
:100010006DC96CC96BC96AC969C968C967C900007B
:10002000000C18067E43B043F061F031B80EFC0FAF
:10003000EE1FC033C04DC05F807F005C0008280405
:10004000840A00000000FFE2E7E1813000080118A7
:10005000070C078003C001E000C011001F001F0053
:100060003F007F00C3A301E001E07BF0FFFF000041
:1000700000000000600C00103410306A3824E82FB3
:10008000FC0F2024E82F306A38103410600C000078
:100090000000FFFFFF9FF3FF0FC1EF8781C78300C1
:1000A000800100800100800100808300808781C77B
:1000B0000FC1EF9FF3FF000000007077005055FC68
:1000C0007577DC7177DC7577DC7177DC7577DC71DF
:1000D00077DC7577DCF177DC3576DC3176DCF5774B
:1000E000DC7177DC7577DC7177DC7577DC7177FC38
:1000F0007577005055007077000000000000FF0782
:1001000000FF0300010000010000010000010000E9
:1001100001000001000001000001000001000001D9
:1001200000000100000100000100000100000100CA
:1001300000010000010000010000010000FF0300B9
:10014000FF0700FFFFFF0000000077778057554052
:100150007777407777407777407777407777407742
:1001600077408777402776406776402776408777C5
:100170004077774077774077774077774077774059
:100180007777805755007777000000000000FF0068
:10019000007F00003F00001F00001F00001F000044
:1001A0001F00001F00001F00001F00001F00001F95
:1001B00000001F00001F00001F00001F00001F00A4
:1001C000001F00001F00001F00003F00007F000014
:1001D000FF0000FFFFFF00003C3C3C3C3C3C0000BB
:1001E000000000000000000000000000000000000F
:1001F00000000000000000000000000000003C3C87
:100200003C3C3C3C000000000000000000000000FE
:1002100000000000000000000000000000000000DE
:10022000000000000000000000000000C5B87B379F
:1002300046078000000000000840D7FAFFBFD60D37
:10024000A0C7F8FF3FC60DA0EFFDFF7FEF0D100226
:10025000800004400CC0FFFFFFFFFF0DD0FFFFFF39
:10026000FFFF01E8FFFFFFFFFF0D00100008000186
:100270000CE8FFFFFFFFFF0DECFFFFFFFFFF0DE6A8
:10028000FFFFFFFFFF0D0C011000001000EAFFFF51
:10029000FFFFFF0DECFFFFFFFFFF0DE8FFFFFFFF7C
:1002A000FF0D0080000F00010EE8FFFFF9FFFF0DBA
:1002B000D0FFFFF9FFFF01C0FFFFF9FFFF0D1000A6
:1002C000049900080CA0FFFFE1FFFF0DA0FFFFE174
:1002D000FFFF0D40FFFFFFFFFF0D8000000000004B
:1002E0000800F7DE7B7777070000018080000000C0
:1002F000000000000000FFFFFFFFFFFFFFFFC7F847
:10030000FF3FC6FFFF0400000082E07F0000000006
:1003100000E03F0000000000E01F0000000000E0DF
:100320000F0000000000E00F0000000000E00700E8
:1003300000000000E0070000000000E007000000EF
:100340000000E0030000000000E0030000000000E7
:10035000E0030000000000E0010000000000E000F9
:100360000000000000E0010000000000E0000000CC
:10037000000000E0010000000000E00300000000B9
:1003800000E0030000000000E0030000000000E0C7
:10039000070000000000E0070000000000E0070088
:1003A00000000000E00F0000000000E00F0000006F
:1003B0000000E01F0000000000E03F00000000001F
:1003C000E07F0000000000E0FF0001808000E0FF0F
:1003D000FFFFFFFFFFFF0000000000000000000023
:1003E0000000FEFFFFFFFF3FFEFFFFFFFF3FC000DB
:1003F00000000003C00000000003C0000000000374
:10040000C00000000003FEFFFFFFFF3FFEFFFFFFF5
:10041000FF3FC00000000003C00000000003C00058
:1004200000000003C00000000003FEFFFFFFFF3FCD
:10043000FEFFFFFFFF3FC00000000003C000000000
:100440000003C00000000003C00000000003FEFF26
:10045000FFFFFF3FFEFFFFFFFF3FC0000000000364
:10046000C00000000003C00000000003C000000046
:100470000003FEFFFFFFFF3FFEFFFFFFFF3FFFFF09
:10048000FFFFFFFF0100000000C00000000000802F
:100490000000000000800100000000C01FFEFFFF00
:1004A0007FF81FFEFFFF7FF80100000000C0000082
:1004B000000000800000000000803FFFFFFFFFFC05
:1004C0003FFFFFFFFFFC3FFFFFFFFFFC3FFFFFFF82
:1004D000FFFC0000000000800000000000803FFFE3
:1004E000FFFFFFFC3FFFFFFFFFFC3FFFFFFFFFFCA5
:1004F0003FFFFFFFFFFC0000000000800000000045
:1005000000800100000000C01FFEFFFF7FF81FFEFB
:10051000FFFF7FF80100000000C000000000008025
:10052000000000000080380000C0450700440000C3
:10053000300018008203000800200039040004FE87
:10054000400029180082FF8300396000E1EF0701B5
:10055000828381E0E70702440C46E8F72F04383035
:1005600048E4F36F0400C030D4FB47080000339622
:10057000FBD30838001C36FFD90844C01373E1DCF4
:1005800011823F1CF340DE11390010F3C0DF112946
:100590008011FBC0DF11397E1E9B40DE1182011EDF
:1005A000CBE1D811448011F3FFD311386030F2ED64
:1005B000DF0870182CF6EDDF08880423E4CD4F081F
:1005C00004C340ECDC6F04723040689E2F04520874
:1005D0008060BF0702720400E1FF03010403008290
:1005E000FF830088000004FE400070000008002027
:1005F0000000000030001800000000C045070000A7
:10060000000000000000C7FFFF3F00F8FF83FFFF6E
:100610000F00E0FF01FCFF0700C0FF00F8FF030030
:1006200080FF00E0FF010000FF0080FF000000FEEF
:1006300001007E000000FC830338000000F8C70FB3
:1006400030000000F8FF3F00000000F0FFFF000056
:100650000000F0C7FF03000000F0833F0C00000023
:10066000E0010000000000E0000000000000E000E9
:100670000000000000E0008001000000E001FE0139
:10068000000000E0837F00000000E0C71F000000C2
:1006900000F08F0710000000F007031C000000F0BE
:1006A00003003F000000F801C03F000000F801F027
:1006B0007F000000FC01F8FF000000FE03FCFF01CA
:1006C0000000FF07FFFF030080FF8FFFFF0700C050
:1006D000FFFFFFFF0F00E0FFFFFFFF3F00F8FFFFFE
:1006E000FFFFFFFFFFFF367740766C706E367407B2
:1006F0007C3F2C3F601F6C0AD81A58181802F00A69
:10070000C00EF00ED006E008B00BD81AD818601A48
:1007100018065C177C3D603F6C3E6E786E760E0668
:100720006E67E400DC368016D008B00AB00AC00A52
:100730001816EC3468366E4EE40DE262EEEC0EEE06
:100740006EEEEC0EE060E6EEEEEE0EEE4E66E60EBF
:10075000E0E0E6ECEEEE0ECE6E0EEC6CE0E0EEEEDF
:100760008EEEE07BDF03807FFF02407AEF03C07BE9
:10077000EF01C03B0B00C047EF018077EF01807FA6
:10078000EF018071FE010074F0010077F600007F38
:10079000FE00007DE500007F0F00007F7F0000600D
:1007A000F7000076DF000077FF00005FF200007DB9
:1007B000F4008077FE018047EB008037EB0080700B
:1007C0000F00007BEF01807BFE01C07BF102C05B6C
:1007D000FF02C07FFE03E07BCE03FC007E00F8F941
:1007E0003E1F00FCBE0FF0DD9E0F60FBD606C0333F
:1007F000DE03C0C31C0080F7E80100D0E6000077EC
:10080000EE00000E6E0000AE4E0000F1EE0000960D
:10081000E00080F75E0080F89E02C0F3DE03E00B8C
:10082000A607E0FCB00300FD2E0CF8ED7F1FFCFED8
:100830007E37FE3C7F00FE7C7F7EBE7C7F7BFE7E23
:100840003E777E7E007F7C7F1E7F007F7F7F7C7E69
:100850007F7F7C7C7F7FFE307F3CFE087F00F63C04
:10086000773EFE7E7F7EFE7E7E7FDE7E3E7B7E7ED0
:10087000007F7C7E3C7F006E7F3F787E7F3FFE7EE8
:100880007F7FFE3E7F7EFE0C7700FE307F3CFE7C4D
:100890007F7FFE7E7F7FFE7E7F7F7E7E3C777C7EBD
:1008A000007F187E3C7F807C7E7FFC7D7F7FFE39D1
:1008B0007F3EFE007F00DE3C7F3EEE7C7F7FFE7E43
:1008C0003F7FFE7E3F7FFE7E1E5FFE7E007FFE6CD2
:1008D0003E777C6E6E7F00767F7F1C3E7F7EFE00C3
:1008E0007F3CF0FDFC013F1F0000F0F7013EFF1FC1
:1008F000FF07E0FFF97FFF9FF707C0FFFD7FFFCFF6
:10090000FF03801FF87FFEE7FF0300C0F97D00E0D2
:10091000FF0100FCF37BFCE3F70000FEF77FFEF72E
:10092000FF00009EF77FEFF77F0000FCEF7FDF07FF
:10093000000000FCEF3FFFE71F0000F8E307FFF3B4
:100940001F0000001838FEB90F0000C09F7F00F89C
:10095000070000E0DD7FFEF0030000C0BB77FF0171
:10096000000000C0BF7DFFFD030000809F7FFDFEF3
:1009700001000000007FDFFE000000003F7F7EDE00
:10098000000000007EFF387F00000000FC3E063FB4
:1009900000000000FCFE0E3F00000000007F707EA3
:1009A000000000007E00FE0000000000773FFF70A6
:1009B00000000000BF7FEFFE01000000807FFFBD50
:1009C000010000C08F7FFEFC030000E0DF7700FC29
:1009D000070000F0DD3FFCF0070000F01F00FE0301
:1009E000000000F08F3FBFC30F000000C07FFFE793
:1009F0003F0000F8E17FFFF73E0000FEF37DFFF7C8
:100A00007F0000FFF77E3EE0FF0000D7F77FC0E3E6
:100A1000E70080FFF33FFEE7FF01C0FF03307FCF19
:100A2000FF00C0FFF1037F9F7F008018F83FFF1F8A
:100A300000000067FC7FFF1DFF07E0FFFE7FFFBF98
:100A4000FF0F0078FC3FFF9FFF0F80FFFC3FFF9EE2
:100A5000FF0FE0FFF83FFF9EFF1FF0FFF19FFF9D9C
:100A6000FF1FF0FC0180FF9F7F1F70FF0180FF9F31
:100A7000FF1FF8FFF18FFF9FFF1FF8FFF91FFF1FF8
:100A8000FF1FF8FFFD3FFE1F0E0CF8FFFD3FFE0F9E
:100A9000C000F8FFFD77EE0FFF03F8FFFC6FFE8745
:100AA000FF07F0FFFC7FFCC3FF0FF0FFFCFFF8C166
:100AB000FB0FF0FFFEFF00E0F70FF0FFFEFF00E08E
:100AC000FF07F0FFFE7FC0C3FF07F07FFE7FE087D8
:100AD000FF07E03FFE7FF88FFF07C007FE7FFC1F88
:100AE000FF070000FE7FFC1FFF0F0078FC7FFC1F4C
:100AF000FF0FC0F3DC7FFE9FFF0FE0F7DC7FFE9F60
:100B0000FF1FF0EFFD7FFE9FFF1FF0EFFD7FFEBF99
:100B1000FF1FF0FFF93FFF3FFF0FF0FFF13FFF3FE7
:100B2000FF0FF8FF011FEF3FFF0FF8FF0100DF3F4E
:100B3000FF0EF8FFE100DF3FFE07F8FFF11F7F3FE8
:100B4000E007F8FFF93FFF3FC003F0FFF93FFF3F29
:100B50000E00F0FFF97FFF1F1F00F0FFFD7FFF1F5A
:100B6000FF03F0FFFD7FFF1FFF07F0FF3D7FFF8FBB
:100B7000FF0FF0FFFD7EFE87FF1FE0FFFD7D7C8005
:100B8000FF1FC0FFFC7F0080FF1F007CFC7B0087F5
:100B9000FF1F0000FC7FFC8FFF1F8003FC7FFC8F8A
:100BA000FF1FE07FFC7FFE9FFF0FE0FFFC7FFE9FAB
:100BB000BF1FF0FFFC7FFE9F7F1FF0FFF93FFE9FEE
:100BC0007F1FF0FFF93FFE9FFF1FF0FFF11FFF8F18
:100BD000FF0FF8FFE101FF97FF0FF8FF0100FF177C
:100BE000FF0FF8F7010EFF1BCE07F8FFE13FFF1FD5
:100BF0000003F8FFF17FFF1F0000F8FFF97FFF1FE0
:100C0000780078FFF97FFE1FFE01F0FEFD7FFE1FDA
:100C1000FF0FF0FFFD7FFE8FFF0FF0FFFD7FFE87D0
:100C2000FF1FF0FFFD7F1C80FB1FE0FFFDFF00802A
:100C3000FF1FC0FFFDFFC087FF1FC0FFBCFFF88F75
:100C4000FF1F0078C8FFFC8FFF1F0000FC7FFE9F86
:100C5000FB1FC007FC7FFE9FFF1FE07FFC7FFE9F06
:100C6000FF0FF0FFFC7FFE9FFF0FF0FFF87FFEBF3E
:100C7000FF0FF0FFF97FBEBFFF0FF0FFF13FDE3F38
:100C80007F0FF8FE013EDF3FFF0FF8FE0130EF3F20
:100C9000FF07F8FDF103EF7FFE07F8FBF90FEF7F89
:100CA000FC03F8FFF91FFF7FFC00F8FFFD7FFF3F0B
:100CB0003800F8FF7D7FFF1F0003F8FF7D7FFE1FD8
:100CC000C007F8FFFD7EFE0FFE0FF8FFFD7FFE0759
:100CD000FF0FF0FFFD7FFC80FF0FF0FFFC7F008027
:100CE000FF0FF0FFF87F008EFF0FE03FF83FF89F07
:100CF000FF1FC003F83FFCBFFF1F0000FC3FFEBF0B
:100D0000EF1FFF3FFE7FFE3FFE7FFE7F7F7FFF7F67
:100D1000FF7EFCFFBE7FFFBFFF3FF8FDFE3FFF3EB3
:100D2000FF0FF8FF7E7FF7BFFF1EFCFDFE7CFFBFBD
:100D3000FF3EFE7FFF7FFE3FFF7FFF3FFE3FFC0F3A
:100D4000FE7F7800AED580A83FD300408D14A1C8A7
:100D5000DA1281CFD9F1DB40200121007FAF445866
:100D600078005800075878001200077858001200E1
:100D70001480A00114A21880A04018A02CC8C8801C
:100D80002CC84058780012004078580012EA688059
:100D9000A00268A36E80A0146EA2C0587800C300A1
:100DA000C0785800C4EAC780A009C7A0C85800008E
:100DB000CA00CB380000CB00F158780091EBF178F5
:100DC00058009100F3587800C3EAF3785800C40043
:100DD000FD5878007D00FD7858004D0001B7050DE5
:100DE00001D7050B022A020002970300302C03FAF8
:100DF0000100282C03FC01003C6C28070100532C47
:100E000005FC01006D4C0F040060874C0C03006072
:100E1000A38C0FFF0130AB8C0F010070E34C0C036F
:100E20000060ED4C0C030060181818181818180012
:100E300018180000000000180000EA0082180018CE
:100E40008318001818180018000018001800000077
:100E500000180018C8180018001800001800180022
:100E60000018001800180018581800185A00180028
:100E70000018001800EA00181800000018180000F8
:100E8000181800181818181800001800000000188A
:100E900080180000000082EA1818000018181818BE
:100EA0001818181818EB1818181000001800180057
:100EB00018001800000000001800181018000000AA
:100EC000000018EB1800180018001880180018000F
:100ED0001800180018000000180000181800000082
:100EE00000001818000018005B1810EAEA001880CB
:100EF0005A00003A00180000000000181800000016
:100F00000000180000180018181800001800180039
:100F10001800180018000000005B185B18000000A3
:100F200000001818185B1800FFFFFFFF55AA88245F
:100F3000000000000000000081307FED30731230AF
:100F40004E21303F4C1C10050102057F106C200023
:100F5000070102052605E81C0806010205D603382C
:100F600020080701030C160258101801010208F6A8
:100F70000178101801010208D6018018200301032E
:100F80000846018C1820030103084601A01820031D
:100F9000010308B600C80C20030102636E002C1484
:100FA00028020102631E00020D00030700FF000873
:100FB000020D5C5F0700010408420A00030701FFFD
:100FC0005458420A045B0701000058420A5C5F075C
:100FD00001010058E20804190701FF002CE208464D
:100FE0005B070101162C320800192502FF122C3272
:100FF000081A45250200002C3208465F2502010030
:101000002CDA071A242502FF0016DA073B452502D1
:10101000010B166207000E2502FE001E6207515FDB
:101020002502020F1E3607000E3403FE0716360790
:101030000F243403FF00163607253A340300001648
:1010400036073B5034030100163607515F34030264
:101050000016220725293403FF000A2207363A34F6
:101060000301050AE6060F1D3403FE001EE60642D4
:10107000503403020F1E0000000007000000600053
:101080003E00000000C10700008000780400003F1F
:10109000800B0000C0030A0000007C0800000080F4
:1010A0001000000080100000000006000000800F0B
:1010B000000000F0010000003C0040E0010700607B
:1010C000F00F7D0820380FF55D2D3829551300FCF1
:1010D000AF030000FC29F90F003C0FD91800380FAE
:1010E00035302DF807776620E00713696000007639
:1010F000664000003030000000D818000000F80FF3
:101100000000000000000000000000FFC1FFFFFF22
:10111000FF00F8FFFF7F0080FBFFFF0000F0FFFFF4
:101120003F00F0FFFFFF03F0FFFFFF7FE0FFFFFF47
:101130007FE0FFFFFF7FE0FFFFFF07E0FFFFFF0112
:10114000E0BF0FFE00FC1F077080E30F036000226A
:1011500080034000008001000000C0010000E0FFAB
:10116000010000C0FF01400000C0016000008003DA
:1011700070000080037000000F0FF800001FFFFFD9
:101180000100BFFFFF0380FFFFFF03C0FFFFFF035E
:10119000E0FFFFFFFFFFFF20383E38203E1C1C0809
:1011A00008020E3E0E0208081C1C3E180080DDDD01
:1011B000DDDD010C018000000000020C8110000E3A
:1011C000280002188190080430000230BF9F1C0ADA
:1011D000187F003081903C0E2C400218B510780426
:1011E000063F020C018F3C0A0000000C39801C0EE7
:1011F0001EBA021808860804220002143128000AC8
:101200005E98023E818E000E22A40022B9A0000446
:101210001E240200A0AE000A00800200F902000EA7
:1012200006BF020001AC000429A4000001A0000ACE
:101230005100020000A4000E29980200012A0004B7
:1012400006A40200019E000A00A400220080000EF5
:101250001C98023E010C000422006214018E000A58
:101260002AB88218008A000E2284600C01800004D3
:101270001C84020C0106000A0080CA18008A000EB5
:10128000079CAA30018C00047D6010300080000AA9
:10129000573C8218010E000E0000721C00820000F4
:1012A00000008A0C008CDDDDDDDD71000101020132
:1012B0000202030102020302030304000103000F00
:1012C00000070504000002030001020411241FBEF0
:1012D000CFE5D2E0DEBFCDBF21E0A0E6B0E001C0A7
:1012E0001D92AF3AB207E1F7A7D349C689C63F922C
:1012F0004F925F926F927F928F929F92AF92BF9226
:10130000CF92DF92EF92FF920F931F93CF93DF93D1
:10131000B82EA62EE901CF80D884002339F08B8126
:10132000698170E090E01AD6C80ED91E50E0FA012B
:10133000E853FD4EA491FA01EC53FD4E9491FA014D
:10134000E054FD4EE491A91608F482C0EA1508F4B1
:101350007FC08A2F6A2FF9D5982E4C0F5D1FFA0196
:1013600083802A2F30E0F901E554FD4EE491BA81E3
:10137000CB811C2F110F110F110F1B0F8A2D891BF1
:101380006A2F660F660F660FE0D5482FD0E06B2DF1
:1013900070E0CE01E3D5B901E1D568E0E62EF12C8D
:1013A000712C66246394AB2EB12C6E2F70E04B171A
:1013B00078F1411768F5242F30E02A193B0937FFEF
:1013C00002C0295F3F4F53E0359527955A95E1F7C5
:1013D000280F392F311D2C0D3D1D512C50E0F42FBD
:1013E000F7704F2EA515B9F0F9013490E32DF0E018
:1013F000042C02C0F595E7950A94E2F7E623F7235B
:10140000E555FD4EE4915E0F2C0F3D1F5394EACF3E
:1014100050E00111592D4A0F581508F07628660C36
:10142000F1E0EF1AF10809F0C2CF872DDF91CF91DB
:101430001F910F91FF90EF90DF90CF90BF90AF90F2
:101440009F908F907F906F905F904F903F90089506
:10145000702E7194EACFDC01FB018C9187FF02C0F2
:10146000805F8C938C91803114F080518C938081BB
:1014700087FF02C0805F80838081803114F08051BB
:10148000808308950F93CF93DF9300D0CDB7DEB75D
:10149000013059F130F0023021F1841B8983621B45
:1014A00027C0641B6A83820F8983BE016E5F7F4FF2
:1014B000CE010196D0DF8A81082E000C990B24E022
:1014C000880F991F2A95E1F72981820F911D27FD29
:1014D0009A9585599F4F0F900F90DF91CF910F9163
:1014E0000895640F6A83821BDFCF840F8983620FA4
:1014F0006A83DBCF8F7787B987B187B9369A3699F8
:10150000FECF84B195B1089528E0C29887FDC09AB6
:1015100087FFC098C29A880F2A95B9F7C298C09AD7
:10152000B898C29AC298B89AC0980895C09AC29AB8
:10153000C098C298089586B38695817090E008950A
:101540002F923F924F925F926F927F928F929F92D3
:10155000AF92BF92CF92DF92EF92FF920F931F93C1
:10156000CF93DF93CDB7DEB76A970FB6F894DEBF9F
:101570000FBECDBFF12CE12C78E0572E7E2CD6DFAC
:1015800088E7C2DF80E4C0DFA7EAB1E0E52D1D9265
:10159000EA95E9F767EAC62E6FE0D62E49E050E0FB
:1015A000B601CE010A96C8D48A859B85892B09F499
:1015B00069C08C85082E000C990BE816F9060CF40E
:1015C0005DC08D85082E000C990B8E159F050CF4BF
:1015D00055C0A090600010916100B09062000B2D8A
:1015E00028894F85612F8A2D4DDFDC018C9184FF86
:1015F00045C02E85A22F022E000CBB0B54E0B595E2
:10160000A7955A95E1F72F702F5F2A1B8C85972D90
:10161000981B8989412F110F550B4A0D511DA7FCAD
:101620005A954B0D511D40FF27C080953A89830F75
:10163000891B90E0622F022E000C770B8FD44A8515
:101640005B85840F951FA955BE4F472D41702150D2
:101650001F852F3FC1F0FC013491E12FEE0FE40F05
:1016600050916A00E50FFF27FF1FE85DF04FE491FE
:10167000E323ED930196EBCF890FDBCFF9E0CF0E9B
:10168000D11C8CCF13E0912C812C212F30E03A8F8C
:10169000298F112309F4AEC0498D5A8D4819590973
:1016A0005C8B4B8BCA0163E070E058D4885C904F30
:1016B000988F8F8B44E4A42E4FE0B42E49E050E085
:1016C000B501CE01019638D48A8190E0DC010B8807
:1016D00002C0B595A7950A94E2F7BE8BAD8BCF8873
:1016E000D88C44244A941D013324F6016490862D3D
:1016F000062C000C990B9C0122193309E216F30603
:101700000CF470C0820D931DE816F9060CF06AC047
:1017100000916200242D412F609161008091600052
:10172000B1DEDC018C91282F2C7F998129135AC0BE
:1017300081FF05C090916200982790FF45C02F85DA
:10174000022E000C330BEB89FC892E173F0729F47E
:1017500084FD03C0442009F44DC037EAC32E31E0B4
:10176000D32E412C3D88370C361801E09E012F5FA7
:101770003F4F412F642D832DBADD682ED6018C9109
:1017800086218C9300E09E012F5F3F4F412F642DF7
:10179000832DADDDE0916A009F85E90FFF27FF1FD4
:1017A000E85DF04FE491E823113029F460948091D2
:1017B00068006822E625D6018C91E82BED936D0137
:1017C0004394B8E04B12D1CF29E0A20EB11C47EAF6
:1017D0005FE04A155B0509F071CF11505FEF851A84
:1017E000950A57CFEFEFCE1ADE0A4394F2E04F127C
:1017F0007CCFEACF07EA11E0D8019D918D0180915D
:101800006700892781DEEFEAF1E0E017F107A1F731
:10181000C098C29AC09AFFEFEF1AFF0A20E6E216BC
:10182000F10409F0ABCE0FEF912C812C11E0100FD9
:10183000512E550C550C550C79DE88E765DE80E499
:1018400063DEC4016BEF7FEF89D384579F4FF12C88
:10185000E12C23EF422E400EAC01485F5E4E6A0140
:10186000DC01A458BF4E3D015401B2E0AB1AB108EF
:10187000AE2DE52DEE0D30916600832F81708E29FF
:1018800020E0B1F0F0E0E555FE4E2491E11010C0EB
:10189000E4E0E41568F08091620090E065E070E0BB
:1018A0005DD3880D991DFC01E757FE4EE4912E2B68
:1018B000409163000E3180F5A43009F06EC0842F92
:1018C00047FF02C081E0840F8595082E000C990B1C
:1018D0008A159B050CF420E08091690028271416D6
:1018E0005CF11EC0143118F032FDF9CF5EC01E301D
:1018F00018F031FDF4CF59C0183018F036FDEFCF95
:1019000054C0113061F335FDEACF4FC0A63021F449
:10191000330F330B2323E3CF141674F0A33060F09E
:101920000C3150F4F601EE0DFF1DE4912E23F3016E
:10193000EE0DFF1DE4912E2B822FE6DDFFEFEF1A57
:10194000FF0A28E0E216F10409F092CFC098C29A8B
:10195000C09A3FEF831A930A012F1F3109F066CF17
:1019600010926800109269006A960FB6F894DEBF74
:101970000FBECDBFDF91CF911F910F91FF90EF90E0
:10198000DF90CF90BF90AF909F908F907F906F909F
:101990005F904F903F902F900895A53009F0B6CFFB
:1019A0001A3108F49FCF33FD9ACF20E098CF8150B1
:1019B00028F095E09A95F1F70000F9CF08951F936C
:1019C000CF93DF93162FC0E0D82FD095C49A8D2FD8
:1019D000EEDFC4988D2FEBDFCF5F1C13F7CFDF91C5
:1019E000CF911F910895FC0192B7983010F0975055
:1019F000FCCF838120916500821B890F18165CF44F
:101A000090916300981B909363006AE082E3D7DFB4
:101A10008FEF8093690094CD61E084E6D0DF61E0D0
:101A200088ECCDDF2FEF81EE94E021508040904094
:101A3000E1F700C000000895CF93DF9300D000D0FD
:101A400000D01F92CDB7DEB783E08ABD83BF789404
:101A500080E48CBD8FEF8DBD87EC80BF87E886B9B1
:101A600087B3857D87BBBC9ABA9AB89AC29AC09A46
:101A70008FE39CE90197F1F700C0000057DD02E415
:101A80001DE0F801849140DD0F5F1F4FFDE00E3532
:101A90001F07B9F7C098C29AC09A8FE39CE90197D3
:101AA000F1F700C0000040E6242E40E0342E5FE451
:101AB000A52EBB24B394DD24D3946AE0C62E73E034
:101AC000572EECEE8E2EEDE09E2E44244A94F1012A
:101AD000C50111920197E9F7D0926000D0926100A0
:101AE000D0926200C09263005092640040E051E0E6
:101AF00068E27EE08BE690E01FD24CE350E06CEEB3
:101B00007DE08BE691E018D2EBE6F1E08181A081E7
:101B1000B0E0A05ABF4F1B968C93369691E0E73AFF
:101B2000F907A1F71ABCD3BEE8E0E0936A00809100
:101B3000630018160CF0EDC18091660085FDC0921F
:101B4000640086FD50926500FBDC80916A0088236A
:101B500021F0815080936A00EACF0091620020E07A
:101B600041E060916100809160008CDC7C0180919B
:101B7000670090916800892B90916900892B1092E1
:101B80006700882361F08FEF93ECE9E0815090408B
:101B9000E040E1F700C00000CACF7110F4CF10910F
:101BA000670080E8A7DC8E5E9240883C910570F16A
:101BB00077247394111101C0712C80E89BDC855F40
:101BC0009140893F910548F4809162008F5F837056
:101BD0008093620021DF7724739483E88BDC855F38
:101BE0009140893F910508F05AC0F701808183FD3B
:101BF0004AC012DF11DF809162008130D1F180F0A4
:101C00008230E9F180916000815036C0809162009D
:101C10008150837080936200FFDE77247394CDCF70
:101C20008091610081508093610011E083E862DC63
:101C30008E5E9240883C910508F03FC000916200A2
:101C400020E04FEF60916100809160001BDCFC019F
:101C5000808183FD6EC0E0DEDFDE80916200813036
:101C600031F1F8F0823009F460C0809160008F5F3C
:101C700021C0809160008F5F80936000D6CF8091FB
:101C800061008F5FD0CF61E082E399DEFFEF21EE4C
:101C900084E0F15020408040E1F700C0000010E0F7
:101CA000C5CF809161008F5F8093610005C08091F6
:101CB000600081508093600011E061E670E080E692
:101CC00090E0C9DB112309F448C00CED1DE044E0AD
:101CD00050E0B801CE0101962FD12A818091610098
:101CE000082E000C990B34E0880F991F3A95E1F704
:101CF00030916000830F911D37FD9A9528171906C2
:101D000071F48B819981913009F5809360008C8109
:101D1000809361008091660082FD409267000C5FB5
:101D20001F4F8016910699F62ECF80916100815049
:101D3000BBCF61E082E343DEFFEF21EE84E0F150B0
:101D400020408040E1F700C00000B7CF90916200D2
:101D5000890F837080936200DDCFEDDB892B09F062
:101D60001CCFF701008102FF4CC0C7018B56904089
:101D70000BE611E0F801908189130EC0848188235D
:101D800011F0C80130DE809163001816ECF482B7C0
:101D9000883028F08750FCCF0A5F1F4FEBCF20918F
:101DA000640090E0820F911D27FD9A95F8019281C1
:101DB000981B92836AE082E302DE40926800BBDBFC
:101DC000892BE9F3BDDBBCDBF801828118167CF4BA
:101DD00084818111D8CEFFEF24E38CE0F1502040C4
:101DE0008040E1F700C00000C801FDDDCCCEF70166
:101DF000108280916600F8019581892B809366009E
:101E0000C2CE8EE5682E8DE0782EF02FFC7FFF830A
:101E100046E050E0B301CE0101968ED0898190E07A
:101E200085599F4FE816F90609F069C08A812F810C
:101E3000281365C0909166002833F9F08C81203812
:101E400031F5982B90936600823051F011E090911B
:101E5000660094FF42C022B72930D8F02850FCCF4A
:101E6000EBE6F0E08191803119F4DF0111971C92CB
:101E700081E0EB36F807B0F3E9CF93FFE8CFF70145
:101E8000108280916600877F80936600DFCF892B68
:101E9000FBCF80916300885F820F80936300905135
:101EA000909366006EE184E68ADDFFEF23EF81E028
:101EB000F15020408040E1F700C000006EE184E670
:101EC0007EDD9FEFE9EFF0E09150E040F040E1F778
:101ED00000C000006EE186E972DD112361F08A81A5
:101EE000081B8B81082BF7010083ED81F0E0E05A9D
:101EF000FF4F8E8183876AE082E361DD44CEF6E0A6
:101F00006F0E711C2CED62162DE0720609F080CF69
:101F10003ACE80916A00883028F48F5F80936A00FF
:101F20000FDBF7CFF101C50111920197E9F708DB4B
:101F300002DB892BE9F7CBCDFB01DC0102C0059068
:101F40000D9241505040D8F70895002480FD060EB0
:101F5000660F11F08695D1F7802D0895002455273E
:101F600004C0080E591F880F991F009729F0769515
:101F70006795B8F37105B9F7802D952F0895F894FA
:021F8000FFCF91
:00000001FF
