:100000000C94FA0E0C94220F0C94220F0C94220FD5
:100010000C94220F0C94220F0C94220F0C94220F9C
:100020000C94220F0C94220F0C94CC180C943B19B6
:100030000C94220F0C94220F0C94220F0C94220F7C
:100040000C94220F0C94220F0C94220F0C94220F6C
:100050000C94220F0C94220F0C94220F0C948218F3
:100060000C94220F0C94220F0C94220F0C94220F4C
:100070000C94220F0C94220F0C94220F0C94220F3C
:100080000C94220F0C94220F0C94220F0C94220F2C
:100090000C94220F0C94220F0C94220F0C94220F1C
:1000A0000C94220F0C94220F0C94220F0000000CD1
:1000B00018067E43B043F061F031B80EFC0FEE1F1E
:1000C000C033C04DC05F807F005C00082804840AF4
:1000D00000000000FFE2E7E1813000080118070C92
:1000E000078003C001E000C011001F001F003F0097
:1000F0007F00C3A301E001E07BF0FFFF00000000F0
:100100000000600C00103410306A3824E82FFC0F17
:100110002024E82F306A38103410600C00000000F2
:10012000FFFFFF9FF3FF0FC1EF8781C783008001AF
:1001300000800100800100808300808781C70FC19B
:10014000EF9FF3FF000000007077005055FC7577BB
:10015000DC7177DC7577DC7177DC7577DC7177DCE7
:100160007577DCF177DC3576DC3176DCF577DC71C0
:1001700077DC7577DC7177DC7577DC7177FC757708
:10018000005055007077000000000000FF0700FFDE
:100190000300010000010000010000010000010057
:1001A000000100000100000100000100000100004A
:1001B0000100000100000100000100000100000139
:1001C0000000010000010000010000FF0300FF0724
:1001D00000FFFFFF000000007777805755407777DA
:1001E00040777740777740777740777740777740E9
:1001F0008777402776406776402776408777407735
:100200007740777740777740777740777740777791
:10021000805755007777000000000000FF00007F46
:1002200000003F00001F00001F00001F00001F0013
:10023000001F00001F00001F00001F00001F000023
:100240001F00001F00001F00001F00001F00001FF4
:1002500000001F00001F00003F00007F0000FF00A3
:1002600000FFFFFF00003C3C3C3C3C3C0000000029
:10027000000000000000000000000000000000007E
:100280000000000000000000000000003C3C3C3C7E
:100290003C3C0000000000000000000000000000E6
:1002A000000000000000000000000000000000004E
:1002B00000000000000000000000C5B87B374607C2
:1002C0008000000000000840D7FAFFBFD60DA0C78D
:1002D000F8FF3FC60DA0EFFDFF7FEF0D100280007D
:1002E00004400CC0FFFFFFFFFF0DD0FFFFFFFFFF2B
:1002F00001E8FFFFFFFFFF0D0010000800010CE800
:10030000FFFFFFFFFF0DECFFFFFFFFFF0DE6FFFF0D
:10031000FFFFFF0D0C011000001000EAFFFFFFFFC0
:10032000FF0DECFFFFFFFFFF0DE8FFFFFFFFFF0DDD
:100330000080000F00010EE8FFFFF9FFFF0DD0FF66
:10034000FFF9FFFF01C0FFFFF9FFFF0D1000049947
:1003500000080CA0FFFFE1FFFF0DA0FFFFE1FFFF82
:100360000D40FFFFFFFFFF0D8000000000000800B0
:10037000F7DE7B7777070000018080000000000037
:1003800000000000FFFFFFFFFFFFFFFFC7F8FF3F78
:10039000C6FFFF0400000082E07F0000000000E0D4
:1003A0003F0000000000E01F0000000000E00F0020
:1003B00000000000E00F0000000000E00700000067
:1003C0000000E0070000000000E00700000000005F
:1003D000E0030000000000E0030000000000E00374
:1003E0000000000000E0010000000000E00000004C
:1003F000000000E0010000000000E000000000003C
:1004000000E0010000000000E0030000000000E048
:10041000030000000000E0030000000000E007000F
:1004200000000000E0070000000000E007000000FE
:100430000000E00F0000000000E00F0000000000DE
:10044000E01F0000000000E03F0000000000E07F2F
:100450000000000000E0FF0001808000E0FFFFFFDF
:10046000FFFFFFFF00000000000000000000000090
:10047000FEFFFFFFFF3FFEFFFFFFFF3FC00000004A
:100480000003C00000000003C00000000003C00023
:1004900000000003FEFFFFFFFF3FFEFFFFFFFF3FE7
:1004A000C00000000003C00000000003C000000006
:1004B0000003C00000000003FEFFFFFFFF3FFEFF40
:1004C000FFFFFF3FC00000000003C000000000036A
:1004D000C00000000003C00000000003FEFFFFFF9B
:1004E000FF3FFEFFFFFFFF3FC00000000003C00012
:1004F00000000003C00000000003C0000000000373
:10050000FEFFFFFFFF3FFEFFFFFFFF3FFFFFFFFF7D
:10051000FFFF0100000000C000000000008000009C
:10052000000000800100000000C01FFEFFFF7FF8F8
:100530001FFEFFFF7FF80100000000C00000000068
:1005400000800000000000803FFFFFFFFFFC3FFF36
:10055000FFFFFFFC3FFFFFFFFFFC3FFFFFFFFFFC34
:100560000000000000800000000000803FFFFFFF4F
:10057000FFFC3FFFFFFFFFFC3FFFFFFFFFFC3FFFD4
:10058000FFFFFFFC00000000008000000000008072
:100590000100000000C01FFEFFFF7FF81FFEFFFFED
:1005A0007FF80100000000C0000000000080000093
:1005B00000000080380000C0450700440000300003
:1005C00018008203000800200039040004FE4000E7
:1005D00029180082FF8300396000E1EF0701828360
:1005E00081E0E70702440C46E8F72F04383048E47E
:1005F000F36F0400C030D4FB470800003396FBD3F0
:100600000838001C36FFD90844C01373E1DC11829E
:100610003F1CF340DE11390010F3C0DF11298011B7
:10062000FBC0DF11397E1E9B40DE1182011ECBE133
:10063000D811448011F3FFD311386030F2EDDF0898
:1006400070182CF6EDDF08880423E4CD4F0804C3AE
:1006500040ECDC6F04723040689E2F0452088060CA
:10066000BF0702720400E1FF030104030082FF835D
:100670000088000004FE4000700000080020000018
:10068000000030001800000000C045070000000016
:1006900000000000C7FFFF3F00F8FF83FFFF0F00CF
:1006A000E0FF01FCFF0700C0FF00F8FF030080FF30
:1006B00000E0FF010000FF0080FF000000FE0100DD
:1006C0007E000000FC830338000000F8C70F3000F4
:1006D0000000F8FF3F00000000F0FFFF00000000F6
:1006E000F0C7FF03000000F0833F0C000000E001B2
:1006F0000000000000E0000000000000E00000003A
:10070000000000E0008001000000E001FE010000A8
:1007100000E0837F00000000E0C71F00000000F041
:100720008F0710000000F007031C000000F003001A
:100730003F000000F801C03F000000F801F07F001A
:100740000000FC01F8FF000000FE03FCFF010000B8
:10075000FF07FFFF030080FF8FFFFF0700C0FFFFC1
:10076000FFFF0F00E0FFFFFFFF3F00F8FFFFFFFF6D
:10077000FFFFFFFF367740766C706E3674077C3F64
:100780002C3F601F6C0AD81A58181802F00AC00EC5
:10079000F00ED006E008B00BD81AD818601A180668
:1007A0005C177C3D603F6C3E6E786E760E066E6721
:1007B000E400DC368016D008B00AB00AC00A181669
:1007C000EC3468366E4EE40DE262EEEC0EEE6EEE48
:1007D000EC0EE060E6EEEEEE0EEE4E66E60EE0E0CB
:1007E000E6ECEEEE0ECE6E0EEC6CE0E0EEEE8EEE93
:1007F000E07BDF03807FFF02407AEF03C07BEF01E5
:10080000C03B0B00C047EF018077EF01807FEF0115
:100810008071FE010074F0010077F600007FFE0099
:10082000007DE500007F0F00007F7F000060F70083
:100830000076DF000077FF00005FF200007DF4002B
:100840008077FE018047EB008037EB0080700F005F
:10085000007BEF01807BFE01C07BF102C05BFF02E9
:10086000C07FFE03E07BCE03FC007E00F8F93E1F54
:1008700000FCBE0FF0DD9E0F60FBD606C033DE032A
:10088000C0C31C0080F7E80100D0E6000077EE004E
:10089000000E6E0000AE4E0000F1EE000096E0008B
:1008A00080F75E0080F89E02C0F3DE03E00BA6072F
:1008B000E0FCB00300FD2E0CF8ED7F1FFCFE7E3740
:1008C000FE3C7F00FE7C7F7EBE7C7F7BFE7E3E7793
:1008D0007E7E007F7C7F1E7F007F7F7F7C7E7F7F90
:1008E0007C7C7F7FFE307F3CFE087F00F63C773EBD
:1008F000FE7E7F7EFE7E7E7FDE7E3E7B7E7E007F76
:100900007C7E3C7F006E7F3F787E7F3FFE7E7F7FD8
:10091000FE3E7F7EFE0C7700FE307F3CFE7C7F7FBC
:10092000FE7E7F7FFE7E7F7F7E7E3C777C7E007FAB
:10093000187E3C7F807C7E7FFC7D7F7FFE397F3E02
:10094000FE007F00DE3C7F3EEE7C7F7FFE7E3F7FB1
:10095000FE7E3F7FFE7E1E5FFE7E007FFE6C3E774A
:100960007C6E6E7F00767F7F1C3E7F7EFE007F3C2C
:10097000F0FDFC013F1F0000F0F7013EFF1FFF07E5
:10098000E0FFF97FFF9FF707C0FFFD7FFFCFFF0369
:10099000801FF87FFEE7FF0300C0F97D00E0FF0144
:1009A00000FCF37BFCE3F70000FEF77FFEF7FF009F
:1009B000009EF77FEFF77F0000FCEF7FDF0700006E
:1009C00000FCEF3FFFE71F0000F8E307FFF31F0005
:1009D00000001838FEB90F0000C09F7F00F8070024
:1009E00000E0DD7FFEF0030000C0BB77FF010000E8
:1009F00000C0BF7DFFFD030000809F7FFDFE010062
:100A00000000007FDFFE000000003F7F7EDE000070
:100A100000007EFF387F00000000FC3E063F000023
:100A20000000FCFE0E3F00000000007F707E000012
:100A300000007E00FE0000000000773FFF70000015
:100A40000000BF7FEFFE01000000807FFFBD0100BE
:100A500000C08F7FFEFC030000E0DF7700FC070092
:100A600000F0DD3FFCF0070000F01F00FE03000077
:100A700000F08F3FBFC30F000000C07FFFE73F00C3
:100A800000F8E17FFFF73E0000FEF37DFFF77F00F7
:100A900000FFF77E3EE0FF0000D7F77FC0E3E700EE
:100AA00080FFF33FFEE7FF01C0FF03307FCFFF0071
:100AB000C0FFF1037F9F7F008018F83FFF1F0000F9
:100AC0000067FC7FFF1DFF07E0FFFE7FFFBFFF0FFA
:100AD0000078FC3FFF9FFF0F80FFFC3FFF9EFF0F52
:100AE000E0FFF83FFF9EFF1FF0FFF19FFF9DFF1FFC
:100AF000F0FC0180FF9F7F1F70FF0180FF9FFF1FA1
:100B0000F8FFF18FFF9FFF1FF8FFF91FFF1FFF1F67
:100B1000F8FFFD3FFE1F0E0CF8FFFD3FFE0FC0006B
:100B2000F8FFFD77EE0FFF03F8FFFC6FFE87FF076E
:100B3000F0FFFC7FFCC3FF0FF0FFFCFFF8C1FB0FD1
:100B4000F0FFFEFF00E0F70FF0FFFEFF00E0FF0701
:100B5000F0FFFE7FC0C3FF07F07FFE7FE087FF0747
:100B6000E03FFE7FF88FFF07C007FE7FFC1FFF07F7
:100B70000000FE7FFC1FFF0F0078FC7FFC1FFF0FB3
:100B8000C0F3DC7FFE9FFF0FE0F7DC7FFE9FFF1FBF
:100B9000F0EFFD7FFE9FFF1FF0EFFD7FFEBFFF1F09
:100BA000F0FFF93FFF3FFF0FF0FFF13FFF3FFF0F67
:100BB000F8FF011FEF3FFF0FF8FF0100DF3FFF0EBF
:100BC000F8FFE100DF3FFE07F8FFF11F7F3FE0077E
:100BD000F8FFF93FFF3FC003F0FFF93FFF3F0E0072
:100BE000F0FFF97FFF1F1F00F0FFFD7FFF1FFF03D6
:100BF000F0FFFD7FFF1FFF07F0FF3D7FFF8FFF0F1F
:100C0000F0FFFD7EFE87FF1FE0FFFD7D7C80FF1F64
:100C1000C0FFFC7F0080FF1F007CFC7B0087FF1F64
:100C20000000FC7FFC8FFF1F8003FC7FFC8FFF1FF9
:100C3000E07FFC7FFE9FFF0FE0FFFC7FFE9FBF1F5A
:100C4000F0FFFC7FFE9F7F1FF0FFF93FFE9F7F1F9D
:100C5000F0FFF93FFE9FFF1FF0FFF11FFF8FFF0F17
:100C6000F8FFE101FF97FF0FF8FF0100FF17FF0FEB
:100C7000F8F7010EFF1BCE07F8FFE13FFF1F00034F
:100C8000F8FFF17FFF1F0000F8FFF97FFF1F7800DA
:100C900078FFF97FFE1FFE01F0FEFD7FFE1FFF0FB4
:100CA000F0FFFD7FFE8FFF0FF0FFFD7FFE87FF1F30
:100CB000F0FFFD7F1C80FB1FE0FFFDFF0080FF1F9A
:100CC000C0FFFDFFC087FF1FC0FFBCFFF88FFF1FE5
:100CD0000078C8FFFC8FFF1F0000FC7FFE9FFB1FFA
:100CE000C007FC7FFE9FFF1FE07FFC7FFE9FFF0F82
:100CF000F0FFFC7FFE9FFF0FF0FFF87FFEBFFF0FAE
:100D0000F0FFF97FBEBFFF0FF0FFF13FDE3F7F0F27
:100D1000F8FE013EDF3FFF0FF8FE0130EF3FFF0717
:100D2000F8FDF103EF7FFE07F8FBF90FEF7FFC03FF
:100D3000F8FFF91FFF7FFC00F8FFFD7FFF3F380041
:100D4000F8FF7D7FFF1F0003F8FF7D7FFE1FC007B8
:100D5000F8FFFD7EFE0FFE0FF8FFFD7FFE07FF0F81
:100D6000F0FFFD7FFC80FF0FF0FFFC7F0080FF0F96
:100D7000F0FFF87F008EFF0FE03FF83FF89FFF1F66
:100D8000C003F83FFCBFFF1F0000FC3FFEBFEF1F8A
:100D9000FF3FFE7FFE3FFE7FFE7F7F7FFF7FFF7E68
:100DA000FCFFBE7FFFBFFF3FF8FDFE3FFF3EFF0F92
:100DB000F8FF7E7FF7BFFF1EFCFDFE7CFFBFFF3EFE
:100DC000FE7FFF7FFE3FFF7FFF3FFE3FFC0FFE7F6A
:100DD000202074726561737572654974656D4D612B
:100DE000736B203D2000202061747461636B734637
:100DF0006972737420202020203D2000202064612F
:100E00006D616765426F6E75732020202020203D44
:100E100020002020686974706F696E747320202030
:100E200020202020203D200020206D6F6E737465EF
:100E300072547970652020202020203D2000290058
:100E40002C20002020706F736974696F6E20202041
:100E50002020202020203D20280000000000003E0F
:100E60005B4F5B3E3E6B4F6B3E1C3E7C3E1C183C1A
:100E70007E3C181C577D571C1C5E7F5E1C00183C76
:100E80001800FFE7C3E7FF0018241800FFE7DBE7BF
:100E9000FF30483A060E2629792926407F050507A6
:100EA000407F05253F5A3CE73C5A7F3E1C1C080802
:100EB0001C1C3E7F14227F22145F5F005F5F0609C7
:100EC0007F017F006689956A606060606094A2FF20
:100ED000A29408047E040810207E201008082A1C12
:100EE00008081C2A08081E101010100C1E0C1E0CDE
:100EF00030383E3830060E3E0E060000000000007E
:100F0000005F00000007000700147F147F14242AEC
:100F10007F2A1223130864623649562050000807BE
:100F20000300001C2241000041221C002A1C7F1CDF
:100F30002A08083E080800807030000808080808E1
:100F4000000060600020100804023E5149453E0048
:100F5000427F400072494949462141494D331814A6
:100F6000127F1027454545393C4A494931412111F5
:100F700009073649494936464949291E00001400E7
:100F8000000040340000000814224114141414140A
:100F9000004122140802015909063E415D594E7C68
:100FA0001211127C7F494949363E414141227F411D
:100FB00041413E7F494949417F090909013E41417B
:100FC00051737F0808087F00417F41002040413F66
:100FD000017F081422417F404040407F021C027F75
:100FE0007F0408107F3E4141413E7F090909063ECA
:100FF0004151215E7F091929462649494932030199
:101000007F01033F4040403F1F2040201F3F4038AA
:10101000403F631408146303047804036159494D85
:1010200043007F4141410204081020004141417FBB
:101030000402010204404040404000030708002031
:10104000545478407F284444383844444428384431
:1010500044287F385454541800087E090218A4A468
:101060009C787F0804047800447D40002040403D87
:10107000007F1028440000417F40007C0478047801
:101080007C080404783844444438FC182424181894
:10109000242418FC7C0804040848545454240404F0
:1010A0003F44243C4040207C1C2040201C3C4030DD
:1010B000403C44281028444C9090907C4464544C0C
:1010C0004400083641000000770000004136080067
:1010D00002010204023C2623263C1EA1A161123A11
:1010E0004040207A3854545559215555794121545E
:1010F000547841215554784020545579400C1E5263
:101100007212395555555939545454593955545406
:10111000580000457C410002457D420001457C406D
:10112000F0292429F0F0282528F07C54554500208A
:1011300054547C547C0A097F493249494932324827
:10114000484832324A4848303A4141217A3A42408E
:101150002078009DA0A07D39444444393D40404062
:101160003D3C24FF2424487E4943662B2FFC2F2B33
:10117000FF0929F620C0887E0903205454794100D4
:1011800000447D413048484A32384040227A007A53
:101190000A0A727D0D19317D2629292F2826292931
:1011A000292630484D402038080808080808080853
:1011B000382F10C8ACBA2F102834FA00007B00007A
:1011C00008142A142222142A14089500220095AA31
:1011D000005500AAAA55AA55AA000000FF00101049
:1011E00010FF00141414FF001010FF00FF1010F087
:1011F00010F0141414FC001414F700FF0000FF009A
:10120000FF1414F404FC141417101F10101F101FE7
:101210001414141F00101010F0000000001F101014
:1012200010101F10101010F010000000FF10101010
:10123000101010101010FF10000000FF140000FF2D
:1012400000FF00001F10170000FC04F41414171016
:10125000171414F404F40000FF00F7141414141409
:101260001414F700F7141414171410101F101F147F
:101270001414F4141010F010F000001F101F0000E0
:10128000001F14000000FC140000F010F01010FF0C
:1012900010FF141414FF141010101F00000000F0B1
:1012A00010FFFFFFFFFFF0F0F0F0F0FFFFFF000086
:1012B000000000FFFF0F0F0F0F0F38444438447C2D
:1012C0002A2A3E147E02020606027E027E02635530
:1012D0004941633844443C04407E201E2006027E7F
:1012E000020299A5E7A5991C2A492A1C4C72017291
:1012F0004C304A4D4D303048784830BC625A463DFB
:101300003E494949007E0101017E2A2A2A2A2A44AF
:10131000445F444440514A444040444A51400000E4
:10132000FF0103E080FF000008086B6B08361236EF
:101330002436060F090F06000018180000001010D0
:10134000003040FF0101001F01011E00191D17128E
:10135000003C3C3C3C0000000000080B0002020284
:101360000000090400000102020000052400100131
:1013700005240101010424020605240600010705D5
:10138000810310004009040100020A000000070563
:101390000202400000070583024000000403090424
:1013A00012010002EF0201404123368000010102D8
:1013B000030141726475696E6F204C4C43004142D9
:1013C0004C3131303600F0F89C8E8783878E9CF844
:1013D000F00000FEFF0303030303070EFCF8000008
:1013E000FEFF0303030303070EFCF80000FFFF00EA
:1013F000000000000000FFFF0000FEFF83838383E6
:1014000083C7EE7C380000F8FC0E07030303070EC9
:10141000FCF800003F7FE0C08080C0E07F3FFFFF1E
:1014200001010101010101FFFF0000FFFF0C0C0C95
:101430000C1C3E77E3C100007FFFC0C0C0C0C0E00D
:10144000703F1F00001F3F70E0C0C0C0E0703F1F32
:1014500000007FFFC1C1C1C1C1E3773E1C00001F76
:101460003F70E0C0C0C0E0703F1F000000000001FE
:10147000FFFF01000000D5F08D14A1C881CFD9F184
:10148000AF20002B203C566963746F727920636F24
:101490006E646974696F6E3E20666F756E642100BC
:1014A0002B203C576F6F64656E20536869656C64D0
:1014B0003E20666F756E6421002B203C527573745C
:1014C000792053776F726420666F756E643E206674
:1014D0006F756E6421002B203C506F74696F6E3EF7
:1014E00020666F756E6421002B203C4B65793E2091
:1014F000666F756E6421002B203C52696E67206F09
:1015000066204F7269656E746174696F6E3E206605
:101510006F756E6421002B203C416D756C657420E5
:101520006F6620547275652053696768743E206643
:101530006F756E6421002B203C436F6D7061737377
:101540003E20666F756E6421006F70656E4368653E
:10155000737428290020206D6F6469666965645082
:101560006F7356616C75652020203D200020206D32
:101570006F646966696564506F736974696F6E2022
:1015800020203D200020206E65774974656D202065
:10159000202020202020202020203D200020206E00
:1015A0006578745374617475732020202020202086
:1015B00020203D2000202063757272656E74537484
:1015C000617475732020202020203D20002020639E
:1015D000757272656E74506F736974696F6E2020D6
:1015E00020203D2000494E544552414354494F4E1E
:1015F0005F494E464F003E002B204D617463686981
:101600006E6720656E74727920666F756E64203C1B
:10161000004458780058000758780012000778589E
:101620000012001480A00114A21880A04018A02C61
:10163000C8C8802CC8405878001200407858001262
:10164000EA6880A00268A36E80A0146EA2C05878D9
:1016500000C300C0785800C4EAC780A009C7A0C86A
:10166000580000CA00CB380000CB00F15878009138
:10167000EBF17858009100F3587800C3EAF37858FA
:1016800000C400FD5878007D00FD7858004D003CF6
:101690002D20706C6179657241747461636B002AEE
:1016A0002A2A204E6F206D6F6E73746572202D2074
:1016B0006E6F20666967687421002D3E20706C6132
:1016C00079657241747461636B0029002C20002AD3
:1016D0002A2A204E6F20656E74727920666F756EAF
:1016E0006420666F72206D6F6E7374657220617412
:1016F00020706F736974696F6E2028002B204D6F06
:101700006E7374657220666F756E642100292029DE
:10171000002C200066696E644D6F6E7374657228CC
:1017200020706F736974696F6E203D202800290056
:101730002C2000202076616C756520202020202040
:1017400020203D2028005350494E4E45520054451C
:101750004C45504F525445520020207370656369C8
:10176000616C4658202020203D20002A63656C6C67
:10177000203D20004D6F6E73746572206465666550
:101780006174656421002A63656C6C203D20000152
:10179000B7050D01D7050B022A02000297030029A5
:1017A000002C2000706C6179657220706F73697411
:1017B000696F6E203D20280020617420706F73696E
:1017C00074696F6E20002B20706C6163696E6720F6
:1017D0006D6F6E73746572200073697A656F662829
:1017E0002044554E47454F4E2029203D2000736927
:1017F0007A656F6628206D6F6E73746572537461BD
:1018000074732029203D200073697A656F66282053
:101810004D4F4E535445525F535441545320292049
:101820003D2000302C03FA0100282C03FC01003C71
:101830006C28070100532C05FC01006D4C0F0400BF
:1018400060874C0C030060A38C0FFF0130AB8C0F42
:10185000010070E34C0C030060ED4C0C03006018B9
:1018600018181818181800181800000000001800A0
:1018700000EA0082180018831800181818001800D1
:101880000018001800000000180018C81800180000
:101890001800001800180000180018001800185848
:1018A0001800185A0018000018001800EA0018184C
:1018B0000000001818000018180018181818180050
:1018C0000018000000001880180000000082EA18CC
:1018D000180000181818181818181818EB181818E5
:1018E0001000001800180018001800000000001870
:1018F00000181018000000000018EB18001800185D
:1019000000188018001800180018001800000018AF
:101910000000181800000000001818000018005BF4
:101920001810EAEA0018805A00003A001800000077
:101930000000181800000000001800001800181817
:101940001800001800180018001800180000000007
:101950005B185B1800000000001818185B18003CAA
:101960002D206D6F6E7374657241747461636B28A2
:1019700029002020506C6179657227732068697492
:10198000706F696E7473203A20002D3E206D6F6E6B
:101990007374657241747461636B2829002C206430
:1019A0006973706C6179586F7245666665637420FF
:1019B0003D20002C20436F6D70617373203D20002B
:1019C0002C204B657973203D20002C204974656DD7
:1019D00073203D20002C2041726D6F7572203D20D8
:1019E000002C2044414D203D20002C204850203D1B
:1019F00020002C20646972203D20002C20706C6136
:101A000079657259203D20002020706C61796572E3
:101A100058203D20002020006F63006363004620B3
:101A2000002320006D6900727400626800736B000F
:101A3000572000442000573C00573E003C400040E7
:101A40007600403E00405E00FFFFFFFF55AA88245D
:101A5000000000000000000081307FED3073123084
:101A60004E21303F4C1C10050102059F1B6C2000CD
:101A700007010205B405E81C0806010205640438E4
:101A800020080701030CA402581018010102088461
:101A90000278101801010208640280182003010373
:101AA00008D4018C182003010308D401A0182003D6
:101AB0000103084401C80C2003010263FC002C143C
:101AC0002802010263AC00900D00030700FF00082C
:101AD000900D5C5F0700010408D00A00030701FFB6
:101AE0005458D00A045B0701000058D00A5C5F0715
:101AF00001010058700904190701FF002C70094604
:101B00005B070101162CC00800192502FF122CC02A
:101B1000081A45250200002CC008465F2502010076
:101B20002C68081A242502FF001668083B45250288
:101B3000010B16F007000E2502FE001EF007515F94
:101B40002502020F1EC407000E3403FE0716C40749
:101B50000F243403FF0016C407253A34030000168F
:101B6000C4073B503403010016C407515F3403021D
:101B70000016B00725293403FF000AB007363A34AF
:101B80000301050A74070F1D3403FE001E7407428B
:101B9000503403020F1E0000000007000000600028
:101BA0003E00000000C10700008000780400003FF4
:101BB000800B0000C0030A0000007C0800000080C9
:101BC0001000000080100000000006000000800FE0
:101BD000000000F0010000003C0040E00107006050
:101BE000F00F7D0820380FF55D2D3829551300FCC6
:101BF000AF030000FC29F90F003C0FD91800380F83
:101C000035302DF807776620E0071369600000760D
:101C1000664000003030000000D818000000F80FC7
:101C20000000000000000000000000FFC1FFFFFFF7
:101C3000FF00F8FFFF7F0080FBFFFF0000F0FFFFC9
:101C40003F00F0FFFFFF03F0FFFFFF7FE0FFFFFF1C
:101C50007FE0FFFFFF7FE0FFFFFF07E0FFFFFF01E7
:101C6000E0BF0FFE00FC1F077080E30F036000223F
:101C700080034000008001000000C0010000E0FF80
:101C8000010000C0FF01400000C0016000008003AF
:101C900070000080037000000F0FF800001FFFFFAE
:101CA0000100BFFFFF0380FFFFFF03C0FFFFFF0333
:101CB000E0FFFFFFFFFFFF20383E38203E1C1C08DE
:101CC00008020E3E0E0208081C1C3E180080DDDDD6
:101CD000DDDD010C018000000000020C8110000E0F
:101CE000280002188190080430000230BF9F1C0AAF
:101CF000187F003081903C0E2C400218B5107804FB
:101D0000063F020C018F3C0A0000000C39801C0EBB
:101D10001EBA021808860804220002143128000A9C
:101D20005E98023E818E000E22A40022B9A000041B
:101D30001E240200A0AE000A00800200F902000E7C
:101D400006BF020001AC000429A4000001A0000AA3
:101D50005100020000A4000E29980200012A00048C
:101D600006A40200019E000A00A400220080000ECA
:101D70001C98023E010C000422006214018E000A2D
:101D80002AB88218008A000E2284600C01800004A8
:101D90001C84020C0106000A0080CA18008A000E8A
:101DA000079CAA30018C00047D6010300080000A7E
:101DB000573C8218010E000E0000721C00820000C9
:101DC00000008A0C008CDDDDDDDD71000101020107
:101DD0000202030102020302030304000103000FD5
:101DE00000070504000002030001020430783030CF
:101DF0000000A01B11241FBECFEFDAE0DEBFCDBF75
:101E000011E0A0E0B1E0E0EAF3E402C005900D9239
:101E1000AC33B107D9F727E0ACE3B1E001C01D92C4
:101E2000A930B207E1F71EE0CAEFDEE004C0219757
:101E3000FE010E94C821C93FD107C9F70E94BD1BFE
:101E40000C94CE210C940000E5EBF2E0A0E0B8E0A9
:101E500000800EBC8111012C1197A0FDFDCF0192D5
:101E6000B9F70DB408953F924F925F926F927F92AF
:101E70008F929F92AF92BF92CF92DF92EF92FF929A
:101E80000F931F93CF93DF93D9011796ED90FC909A
:101E90001897002351F013962C91139711969C914B
:101EA0001197299FE00CF11C112450E0FA01E85130
:101EB000F24E9491FA01EC51F24E7491FA01E05213
:101EC000F24EE491671708F482C0E61708F47FC069
:101ED000999F602C11244A0F5B1FFA015380292F10
:101EE00030E0F901E552F24E449112969C9012971F
:101EF0001396AC918A2E880C880C880C890C671B71
:101F0000592F550F550F550F659F602D1124A89F10
:101F1000F0011124E29F6001E39FD00CF29FD00CEE
:101F20001124C8E0D0E080E011E0A92CB12C50E0F1
:101F3000B0E0691578F1681568F5262F30E02A19A8
:101F40003B0937FF02C0295F3F4F73E03595279566
:101F50007A95E1F72C0D3D2D311D2E0D3F1D712C75
:101F600070E0F62FF7704F2E9715B9F0F901349005
:101F7000E32DF0E0042C02C0F595E7950A94E2F712
:101F8000E423F523E553F24EE4917E0F2A0F3B1F25
:101F90007394EACF70E00111762D690F751508F082
:101FA000812B110F219709F0C4CFDF91CF911F91A1
:101FB0000F91FF90EF90DF90CF90BF90AF909F90E8
:101FC0008F907F906F905F904F903F900895802FFB
:101FD0008195EBCFDC01FB018C9187FF02C0805F14
:101FE0008C938C91803114F080518C93808187FF89
:101FF00002C0805F80838081803114F080518083B3
:1020000008950F93CF93DF9300D0CDB7DEB70130A3
:1020100041F130F0023009F1841B8983621B24C036
:10202000641B6A83820F8983BE016E5F7F4FCE017E
:1020300001960E94EA0F8A8120E18202C0011124E8
:102040002981820F911D27FD9A958F589E4F0F90E1
:102050000F90DF91CF910F910895640F6A83821BD7
:10206000E2CF840F8983620F6A83DECFFC01809107
:102070006401882311F13FB7F89482E08093E9006E
:102080002091F200822F90E01816190614F481E0D6
:1020900090E0882339F0289844E64093630140910A
:1020A000F1004083222339F02091F200211103C076
:1020B0002BE62093E8003FBF08958FEF9FEF089530
:1020C0002FB7F89483E08093E9009091E800892F7E
:1020D000807295FF04C09091F20080E4891B2FBFAD
:1020E0000895E1E0F0E00E948610319728F06851F1
:1020F0007C4F8F4F9F4FF9CFAB01FC010E948610A0
:10210000641775078E079F07C8F30895A3E5B1E02C
:102110002FB7F8947D918D919C9166B52FBFA89BA8
:1021200005C06F3F18F47F5F8F4F9F4F22E0660F0F
:10213000771F881F991F2A95D1F7089580915B0119
:1021400081110DC082E08093570184E08093580193
:1021500010925A011092590181E080935B0187E54A
:1021600091E00895AB01FC010E9486104150510995
:10217000E109F10928F068517C4F8F4F9F4FF6CF4E
:10218000AB01FC010E948610641775078E079F073C
:10219000C8F3089540913E0150913F0120913C01C8
:1021A00030913D0142175307B4F49091E8009570C7
:1021B000E1F39091E80092FD19C08093F1008091C5
:1021C0003E0190913F0101968F739927892B19F455
:1021D0008EEF8093E80080913E0190913F0101963F
:1021E00090933F0180933E0181E0089580E008953F
:1021F000DF92EF92FF920F931F93CF93DF93D82E2E
:102200008A01EB017B01E40EF51ECE15DF0559F0C6
:10221000D7FE12C0FE0184910E94CA10219681113E
:10222000F4CF0FEF1FEFC801DF91CF911F910F91F6
:10223000FF90EF90DF9008958881EECF0F931F936A
:10224000CF93DF931F92CDB7DEB782E0898342E45C
:1022500050E06AE573E180E80E94F8100E949E1049
:10226000DC0112960D911C910115110589F0D80120
:10227000ED91FC910280F381E02DBE016F5F7F4FF5
:10228000C801099597FD04C0F80100851185ECCFC0
:1022900089810F90DF91CF911F910F910895615027
:1022A00030F02091F100FC0120830196F8CF2898AE
:1022B00084E6809363010895AF92BF92CF92DF923C
:1022C000EF92FF920F931F93CF93DF936C017B01EB
:1022D0008B01040F151FEB015E01AE18BF08C0177C
:1022E000D10759F06991D601ED91FC910190F081EF
:1022F000E02DC6010995892B79F7C501DF91CF91B2
:102300001F910F91FF90EF90DF90CF90BF90AF9013
:1023100008958F929F92AF92BF92CF92DF92EF92E9
:10232000FF920F931F93CF93DF936C017B018A0180
:1023300080910B01882309F458C08091640188239F
:1023400009F453C08091420180FF05C08091E000F4
:1023500082608093E000E801B12C8AEFA82E93E020
:10236000892E2AE3922E209711F4BB20B9F10E9406
:102370006010811106C0AA94AA20B9F10E947110C0
:10238000F2CF8C171D0611F00CF08C2F9FB7F8942C
:102390008092E9002091E80025FD02C09FBFE3CFB5
:1023A000282F30E0C21BD30BF701815020F0419160
:1023B0004093F100FACFE20EF31EBB2021F0909281
:1023C000E800B12CEBCF8091E80085FDE7CF90923B
:1023D000E800BB24B394209709F3F3CF5D9884E61B
:1023E00080934101101611063CF081E090E0F60167
:1023F0009383828310E000E0C801DF91CF911F91A9
:102400000F91FF90EF90DF90CF90BF90AF909F9093
:102410008F900895CF93DF931F92CDB7DEB7698376
:10242000DC01ED91FC910280F381E02D41E050E070
:10243000BE016F5F7F4F09950F90DF91CF91089597
:10244000EF92FF920F931F93CF93DF938C017B0149
:10245000D0E0C0E0F701EC0FFD1F6491662339F076
:10246000C8010E940A12892B11F02196F3CFCE01E8
:10247000DF91CF911F910F91FF90EF90089583E02E
:102480008093E9008091F200882319F08AE3809319
:10249000E80008950E94601090E00895CF93DF93C4
:1024A0001F92CDB7DEB7FC018485958597FD08C0E6
:1024B0002FEF3FEF358724870F90DF91CF9108955D
:1024C000CE0101960E943610019719F4898190E09F
:1024D000F3CF8FEF9FEFF0CF0F931F93CF93DF9347
:1024E0001F92CDB7DEB78C01FC018485958597FFDF
:1024F0000BC0CE0101960E943610019771F48981BC
:1025000090E0F80195878487F801848595850F9080
:10251000DF91CF911F910F9108958FEF9FEFF1CF32
:10252000FC018485958597FD0BC09FB7F89482E0E8
:102530008093E9008091F2009FBF90E0019608959A
:102540009FB7F89482E08093E9008091F2009FBFEA
:1025500090E008952D9A0895BC0190E080E00C94DD
:10256000B2108FB18095807F669B88601C9B8460D1
:102570000895AF92BF92CF92DF92EF92FF920F93A6
:102580001F93CF93DF936D3079F0C0914401D091C8
:1025900045016A30B1F41092470110924601289625
:1025A000D0934501C093440181E090E0DF91CF9149
:1025B0001F910F91FF90EF90DF90CF90BF90AF9061
:1025C0000895409146015091470185E0689FF001D0
:1025D0001124E65AF14F9A01C12C80E1E82EA5E0C2
:1025E00070E0CA1621F0CF0101967491FC0110E051
:1025F00000E0B72FB170DB2E20383105D0F4CE01CA
:10260000800F911F80349105A0F461E081FD64E0AA
:1026100080FD660F82FD6295887FE89ED0011124BF
:10262000A20FF62EAB54BD4F8C91DD20A9F0862B66
:102630008C9376950F5F1F4F08301105D1F6C39428
:102640002F5F3F4F86E0C812CACF4A5F5F4F50935B
:10265000470140934601A8CFF0948F21E9CFCF9353
:10266000C82F0E94B112982F9C2381E09C1380E018
:10267000CF91089580E00C94240F64E670E080E030
:1026800090E00C94B210BC0185EB96E00C94201203
:10269000209149019091480130E8939FA0011124B5
:1026A000E0914B01F0914C01E40FF51FE20FF11D99
:1026B000808380914A01882389F09F5F983018F4C5
:1026C000909348010895109248012F5F27FD03C0A1
:1026D0002093490108951092490108952F5F27FF23
:1026E000F7CF109249019F5F983050F31092480144
:1026F0000895089590E080E00895FB010190002086
:10270000E9F73197AF01461B570B0C9489118F9253
:102710009F92AF92BF92EF92FF920F931F93CF932E
:10272000DF93CDB7DEB7A1970FB6F894DEBF0FBE2B
:10273000CDBF7C01FA01CB0119A2223008F42AE0B6
:102740008E010F5D1F4F822E912CB12CA12CBF0149
:10275000A50194010E94A621F901CA016A300CF575
:10276000605DD8016E938D01232B242B252B79F7E7
:1027700090E080E0109721F0BD01C7010E947D1319
:10278000A1960FB6F894DEBF0FBECDBFDF91CF91FB
:102790001F910F91FF90EF90BF90AF909F908F90FF
:1027A0000895695CDECF61E371E00C947D130F93B3
:1027B0001F93CF93DF93EC010E9420128C01CE0176
:1027C0000E94D313800F911FDF91CF911F910F9122
:1027D0000895BC0185EB96E00C94D7131F93CF931B
:1027E000DF9300D000D01F92CDB7DEB7182F45E0A1
:1027F00050E06CEE7DE1CE0101960E948721812F91
:1028000090E024E0959587952A95E1F78A30C0F409
:10281000805D8B83812F8F708A30A0F4805D8C83E4
:10282000BE016F5F7F4F85EB96E00E947D130F9096
:102830000F900F900F900F90DF91CF911F910895FF
:10284000895CE7CF895CEBCF482F50E070E060E017
:102850002AE085EB96E00C948713CF93DF930E94D8
:102860002414EC0185EB96E00E94D3138C0F9D1F7E
:10287000DF91CF910895CF92DF92EF92FF920F9365
:102880001F93CF93DF936B01072E000CEE08FF0818
:1028900077FF1BC0EC016DE20E940A128C014427F5
:1028A0005527BA014C195D096E097F092AE0CE014E
:1028B0000E948713800F911FDF91CF911F910F917D
:1028C000FF90EF90DF90CF9008952AE0B701A60126
:1028D000DF91CF911F910F91FF90EF90DF90CF90FC
:1028E0000C948713CF92DF92EF92FF920F931F9376
:1028F000CF93DF9381E7E82E81E0F82ED0E0C0E0AF
:10290000670110E000E0F60191916F0120916501EF
:10291000022E000C330B0217130709F0C4C02091DC
:102920006601022E000C330BC217D30709F0BBC09F
:102930008091670162E47AE1813051F065E47AE1E7
:10294000813030F06FE37AE1823011F06CE37AE1AC
:1029500085EB96E00E9420120F5F1F4F003111059A
:1029600091F685EB96E00E94D3132196F0E1EF0EED
:10297000F11CC031D10521F685EB96E00E94D313FE
:1029800068E07AE185EB96E00E9420126091650193
:10299000062E000C770B85EB96E00E943B146BEF44
:1029A00079E185EB96E00E94201260916601062E87
:1029B000000C770B85EB96E00E943B1462EF79E107
:1029C00085EB96E00E942012809167010E942414FA
:1029D0006AEE79E185EB96E00E9420126091680131
:1029E000062E000C770B85EB96E00E943B1461EEFF
:1029F00079E185EB96E00E94201260916901062E34
:102A0000000C770B85EB96E00E943B1465ED79E1B5
:102A100085EB96E00E94201260916A01062E000C60
:102A2000770B85EB96E00E943B146AEC79E185EB2D
:102A300096E00E94201280916B010E94EE1360ECE0
:102A400079E185EB96E00E94201260916B0163FBB7
:102A5000662760F970E085EB96E00E943B1463EB1B
:102A600079E185EB96E00E94201260916B01617024
:102A700070E085EB96E00E943B146DE979E185EB0F
:102A800096E00E94201280916D010E94241485EB33
:102A900096E0DF91CF911F910F91FF90EF90DF9023
:102AA000CF900C94D313892F8C7F69E37AE188351A
:102AB00009F44ECF66E37AE1883709F449CF63E33E
:102AC0007AE1883309F444CF60E37AE194FD40CFA2
:102AD0006DE27AE19C3409F43BCF6AE27AE19C36FC
:102AE00009F436CF67E27AE19C3209F431CF64E22F
:102AF0007AE19C3809F42CCF61E27AE1883E09F44E
:102B000027CF6EE17AE1883C09F422CF6BE17AE1CC
:102B1000803809F41DCF68E17AE1803A09F418CFD2
:102B200065E17AE115CF0F931F93CF93DF93EC010B
:102B30000E943B148C01CE010E94D313800F911F81
:102B4000DF91CF911F910F910895BC0185EB96E025
:102B50000C949315CF93DF93EC0163E47EE085EB57
:102B600096E00E94201268816F7070E085EB96E01D
:102B70000E943B1460E47EE085EB96E00E94201208
:102B8000688162956F7070E085EB96E00E943B145F
:102B90006EE37EE085EB96E00E94D71368E27EE06C
:102BA00085EB96E00E94201289810E94EE1362E17B
:102BB0007EE085EB96E00E9420126A81062E000CD2
:102BC000770B85EB96E00E9493156CEF7DE085EB2B
:102BD00096E00E9420126B81062E000C770B85EB8D
:102BE00096E00E94931566EE7DE085EB96E00E94EC
:102BF00020128C8164E371E0882311F067E371E0B7
:102C000085EB96E00E947D1385EB96E00E94D3133E
:102C100060ED7DE085EB96E00E9420128D810E94A0
:102C20002D1485EB96E0DF91CF910C94D313BC016A
:102C300085EB96E00C943B142F923F924F925F925B
:102C40006F927F928F929F92AF92BF92CF92DF92BC
:102C5000EF92FF920F931F93CF93DF93CDB7DEB721
:102C600069970FB6F894DEBF0FBECDBFF12CE12CF3
:102C70002E2CADEAB2E0E8E01D92EA95E9F757ECB8
:102C8000A52E5AE1B52E49E050E0B501CE010A96D5
:102C90000E9487218A859B85892B09F46AC08C85CF
:102CA000082E000C990BE816F9060CF45EC08D8511
:102CB000082E000C990B8E159F050CF456C0109130
:102CC0006501C0906601D09067010D2D28894F8560
:102CD0006C2D812F0E940110DC018C9184FF45C076
:102CE0002E85A22F022E000CBB0B44E0B595A795B4
:102CF0004A95E1F72F702F5F2A1B8C85322D381BE8
:102D000089896C2DCC0C770BFB01E10FF11D17FDB0
:102D1000FA958F010D0D111D00FF25C080959A8930
:102D2000890F831B382F2303C00111244A855B853B
:102D3000840F951FA355BD4F522D517021501F85F3
:102D40002F3FC1F0FC013491E12FEE0FE50F4091D0
:102D50007001E40FFF27FF1FE85BF54EE491E323CA
:102D6000ED930196EBCF830FDDCFF9E0AF0EB11CF1
:102D70008ACF13E0912C812C212F30E0398F288FBE
:102D8000112309F4B1C0A88CB98CA818B908C501E1
:102D9000880F991F8A0D9B1DAC01485A554E5F8BB9
:102DA0004E8B34E6C32E3AE1D32E49E050E0B60113
:102DB000CE0101960E9487218A8190E0DC010A2CD5
:102DC00002C0B595A7950A94E2F7BC8BAB8B6E88D1
:102DD0007F8833243A942D015524F301F491FD8B1F
:102DE0008F2FFF0F990B9C0124193509E216F3066A
:102DF0000CF472C0840D951DE816F9060CF06CC039
:102E000000916701232D412F60916601809165013A
:102E10000E940110DC018C91282F2C7F99812913AD
:102E20005BC081FF05C090916701982790FF46C065
:102E30002F85022E000C330B2A153B0529F484FD47
:102E400003C0332009F450C09DEA692E92E0792E28
:102E5000512C3B88320CBD893B1A01E09E012F5F4B
:102E60003F4F412F652D832D0E94330F482EF301D4
:102E700080818421808300E09E012F5F3F4F412F9E
:102E8000652D832D0E94330FE09170019F85E90F1E
:102E9000FF27FF1FE85BF54EE491E823113029F48A
:102EA000409480916E014822E425D3018C91E82B57
:102EB000ED933D015394B8E05B12CFCF29E0C20EF1
:102EC000D11C37ECC3163AE1D30609F06ECF11508E
:102ED0004FEF841A940A54CFEFEF6E1A7E0A3394A0
:102EE000F2E03F127ACFEACF0DEA12E0D8019D91CD
:102EF0008D0180916D0189270E944813B2E0053B46
:102F00001B07A1F7EFEFEE1AFE0AF0E6EF16F10449
:102F100009F0AECE0CE810E055245A94D12CC12C07
:102F2000312C85E0282EF12CE12C23EF250D2B8B65
:102F3000A801485D534E3A01C8018456944E5C0185
:102F40004C2C460192E0891A91082E2DE32DEE0DAE
:102F500090916B01892F81708E2979F1F0E0E55312
:102F6000F34E8491E1100EC0AB89A53058F4309136
:102F70006701F601329DE00DF11D1124E755F34E76
:102F8000E4918E2B40916801BDE1B515B0F124307C
:102F900009F078C0242F47FF02C021E0240F2595B7
:102FA000022E000C330B281539050CF480E09091AB
:102FB0006F018927141694F124C080E0E3CFF3E178
:102FC000F41518F492FDF6CF66C02DE0241518F420
:102FD00091FDF0CF60C037E0341518F496FDEACFCC
:102FE0005AC051E0451631F395FDE4CF54C0263068
:102FF00021F4990F990B8923DDCF14167CF023302F
:1030000068F09BE1951550F0F301EE0DFF1DE49182
:103010008E23F501EE0DFF1DE4918E2B0E944813C7
:10302000AFEFEA1AFA0AB8E0EB16F10409F08DCF17
:10303000E8E03E0EFFEFCF1ADF0A53940550110966
:103040002FE1521270CF0E943A1310926E0110922B
:103050006F0169960FB6F894DEBF0FBECDBFDF914A
:10306000CF911F910F91FF90EF90DF90CF90BF9085
:10307000AF909F908F907F906F905F904F903F9018
:103080002F900895253009F0B2CFE9E1E41508F05A
:1030900096CF93FD8FCF80E08DCFCF93DF93EC0160
:1030A0008AE899E10E94E91390916C01983010F040
:1030B0009750FCCF8B8120916A01821B890F1816D3
:1030C00044F490916801981B909368018FEF80936E
:1030D0006F0162E779E185EB96E00E942012609132
:1030E0006801062E000C770B85EB96E00E94931585
:1030F0000E941C168FE599E1DF91CF910C94E913A2
:103100000C9490210F920FB68F939F93EF93FF93A0
:1031100080914E018D5F8D3708F08D5780934E0161
:10312000EFE4F1E080818E4F808391819F4F918306
:1031300082818F4F828383818F4F8383E3E5F1E028
:1031400080818F5F808381818F4F818382818F4FC8
:10315000828383818F4F83838FB18F6066991C9B9D
:1031600088278F3681F480914D01981B963068F046
:10317000E0E0F8E087E78083818388E18093600066
:10318000F0936000FFCF90934D01FF91EF919F91DD
:103190008F910FBE0F9018951F920F920FB60F923E
:1031A00011248F939F938091E1009091E100937F90
:1031B0009093E10083FF0FC01092E90091E090939B
:1031C000EB001092EC0092E39093ED0010926401FA
:1031D00098E09093F00082FF22C093E09093E90082
:1031E0009091F200992319F09AE39093E80090915E
:1031F0004101992341F090914101915090934101F7
:10320000911101C05D9A90916301992341F09091D1
:103210006301915090936301911101C0289A84FF3A
:1032200018C08091E2008E7E81608093E2008091E0
:10323000E1008F7E8093E100809142018E7E80616B
:10324000809342019F918F910F900FBE0F901F901E
:10325000189580FFF7CF8091E2008E7E8061809389
:10326000E2008091E1008E7E8093E1008091420136
:103270008E7E8160E5CF1F920F920FB60F921124C0
:10328000CF92DF92EF92FF920F931F932F933F9372
:103290004F935F936F937F938F939F93AF93BF935E
:1032A000EF93FF93CF93DF93CDB7DEB76C97DEBF7D
:1032B000CDBF1092E9008091E80083FF25C068E04F
:1032C000CE0145960E944F1182EF8093E8008D89D0
:1032D00087FF39C09091E80090FFFCCF982F90763F
:1032E00009F034C19E894F89588D2F89F88C91112E
:1032F00031C0803861F5809143018093F1001092D4
:10330000F1008EEF8093E8006C960FB6F894DEBF64
:103310000FBECDBFDF91CF91FF91EF91BF91AF91E4
:103320009F918F917F916F915F914F913F912F91DD
:103330001F910F91FF90EF90DF90CF900F900FBEF5
:103340000F901F9018959EEF9093E800C7CF1092B2
:10335000F100D5CF913059F48111D3CF41305105CF
:1033600081F6809143018D7F80934301CACF9330D2
:1033700049F48111C6CF4130510519F680914301BE
:103380008260F2CF953041F48091E80080FFFCCF5D
:1033900020682093E300B5CF963009F0A9C00B8DCB
:1033A0001C8D22E01092E90010923F0110923E0124
:1033B000F2122EC010923D0110923C010E941E118B
:1033C0001F8299E09983FA8291E09E8390EA988720
:1033D0009AEF998720913E0130913F01275F3F4F3F
:1033E0003C832B838D831092E90010923F01109251
:1033F0003E0110933D0100933C0149E050E0BE01C5
:103400006F5F7F4F80E00E94F8100E941E1179CFFD
:1034100010933D0100933C010E949E10DC01129626
:103420000D911C910115110509F451C1D801ED91BF
:10343000FC910480F581E02DBE016B5E7F4FC801D9
:103440000995009709F03EC1F80100851185EACF82
:10345000F3E0FF120EC08F89882309F440C0823048
:1034600061F440E867E08EEB93E10E946D1B8111EF
:1034700048CF81E28093EB0047CF813029F440E8C8
:103480006BE082EB93E1F1CF833099F70E949E10BD
:10349000DC011296ED90FC908E010F5F1F4F6801CA
:1034A000E114F10479F0D701ED91FC910680F781E8
:1034B000E02DB801C7010995080F111DF701E0843F
:1034C000F184EECFD8011C92F60101900020E9F7BB
:1034D0003197BF016C197D0940E0C601C6CF6CE988
:1034E00073E1FB01449150E080E80E94F81009CF9D
:1034F000973009F4BECF983021F481E08093F10039
:1035000000CF993009F0FDCE837009F0B2CFEDE025
:10351000F1E081E031E096E32191222371F0809384
:10352000E9003093EB00DF0111972C912093EC0020
:103530009093ED008F5F873079F78EE78093EA00F4
:103540001092EA008F8980936401DBCE8B8D9C8D75
:103550001092E90010923F0110923E0190933D01BC
:1035600080933C01898D811192C08E899D89913A09
:1035700049F4813209F07DCF47E050E064E071E02A
:1035800080E0B3CF913209F074CF833269F48F8930
:10359000988DB0E0A0E08093000190930101A0938A
:1035A0000201B0930301ADCE803269F48091E8004E
:1035B00082FFFCCF67E084E091E00E944F118BEF27
:1035C0008093E8009ECE823209F09BCE8F89809353
:1035D0000B01EEEFFFE7859194918B3F9C4D51F1EC
:1035E000E0E0F8E08091040190910501A0910601CE
:1035F000B0910701803B9440A105B105F1F48091A1
:103600000B0180FD1AC0EE3F8AE0F80789F587E7D5
:1036100097E791838083809160008093400188E1E7
:103620009BE00FB6F894A895809360000FBE90932E
:10363000600067CEEEEFFAE0D5CF808191818737C9
:10364000974709F05ECEA8958091600088618093CD
:1036500060008091400180936000EE3F2AE0F20715
:1036600089F08091FE0A9091FF0A9183808349CE70
:10367000808191818737980751F29093FF0A809358
:10368000FE0AC5CF1092FF0A1092FE0A3ACE0E949F
:103690009E10DC0112960D911C910115110509F483
:1036A000E8CED801ED91FC910190F081E02DBE01B2
:1036B0006B5E7F4FC8010995811123CEF80100850B
:1036C0001185EBCF181619060CF41BCED2CEF1E003
:1036D000FF12BECE60EA73E104CFEF92FF920F9328
:1036E0001F93CF93DF93F82E192FE62E042F81E03E
:1036F000860F880F0E94CA1083E00E94CA10CF2D47
:10370000D12FEC0EFD2EF11CCE15DF05B9F007FF11
:1037100013C0FE0184910E94CA10182F80E00E94FD
:10372000CA10812321968111EFCFDF91CF911F9194
:103730000F91FF90EF9008958881EDCF81E0F5CF54
:10374000E5EBF6E01382128288EE93E0A0E0B0E0B1
:1037500084839583A683B78387E191E091838083F7
:103760008FEF9FEF95878487E5E0F7E01382128261
:1037700089E291E0918380830895CDB7DEB72697E3
:10378000DEBFCDBF789483E084BD83E085BD81E05A
:1037900080936E00E1E8F0E083E08083E0E881E080
:1037A0008083E1E983E08083E0E981E08083E1ECEC
:1037B00087E08083E3EC81E08083E0EC82E080833B
:1037C000E2EC81E08083EAE787E0808380688083A1
:1037D0001092640110924301109242018091D7002F
:1037E00081608093D70080EA8093D80089B580619A
:1037F00089BD89B5826089BD09B400FEFDCF0E94F4
:1038000071108091D8008F7C80618093D800809166
:10381000E000807F8093E0008091E1008E7E8093C5
:10382000E1008DE08093E200559A209A81EC80932C
:103830007C0085B1806F85B984B1877E84B984B1FD
:10384000876E84B95E9A5F988AB1806D8AB9769ADC
:103850006E9881B3806F81BB899880B38D7080BB77
:1038600080E58CBD81E08DBD85E090E00E94AC12CA
:103870005F9A85E090E00E94AC125E985C98E6E763
:10388000F4E183E894E124912EBD00000DB407FE1D
:10389000FDCF31968E179F07B1F75C9A81E8809330
:1038A0006400809165008160809365000E943A13F6
:1038B00080E80E942F13882381F05C9885EA8EBDF2
:1038C00000000DB407FEFDCF5C9A2E982F982D981E
:1038D00081E083BF889513BEFCCF84E00E942F1344
:1038E000882309F448C02D9884E80E942F13882368
:1038F000E1F00E94AA1288EC90E00E94AC122F988E
:1039000082E090E00E9490218F3F29F06FEF82E0EB
:1039100090E00E94982184EF91E00E94AC122F9ACF
:1039200084E80E942F138111FBCF84E10E942F13A2
:103930008823E1F00E94AA1288EC90E00E94AC1269
:103940002E9882E090E00E949021882329F060E088
:1039500082E090E00E94982184EF91E00E94AC12F6
:103960002E9A84E10E942F138111FBCF88EC90E006
:103970000E94AC12B2CF0E94AA1282E090E00E9494
:103980008018882309F4C2C03E9A3F9A81E090E0F3
:103990000E948018382F3470732E81FF11C03111AE
:1039A0002E9801EF1FEFE8E0EE2EF12C80E40E944C
:1039B0002F13882309F4ADC02E9A2F9A0E94AA12C1
:1039C00082E390E00E94AC120E94B1128111F8CF04
:1039D000109290008AE0809391008FEF9FEF909378
:1039E000C2068093C10685EB92E090934C018093D0
:1039F0004B0181E080934A011092490110924801E5
:103A000020E5A22EBB24B3947724739433243A94F4
:103A10008AE0682E93E0592EE5E6F1E0A5011192C7
:103A200041505040E1F770926501709266017092CA
:103A30006701609268015092690140E051E06FE5D2
:103A400078E181E791E00E9487214CE350E063E256
:103A500078E181E792E00E94872188E098E10E9466
:103A6000431386E090E00E94A5158EEE97E10E9438
:103A700043138CE390E00E94A51589ED97E10E9425
:103A8000431380E591E00E94A51501E712E0D801FB
:103A900011968C911197EC91F0E0EB59FE4F8487D1
:103AA00086EC97E10E944313F80181810E94EE1396
:103AB00088EB97E10E944313D8018C9190E00E941B
:103AC000A5150A5F1F4FB2E00D3A1B0701F70E94D0
:103AD000721488E0809370018091680118160CF0D0
:103AE000F7C380916B0185FD6092690186FD50925C
:103AF0006A010E941C160E947214D0907001DD2091
:103B000009F4C2C0DA94D0927001E6CF3E983F9893
:103B10003DCF772029F00430110511F42E9A2F980B
:103B200081E00E94240F980117FF04C02227332749
:103B3000201B310B27703327C80117FD079673E050
:103B4000959587957A95E1F717FF05C00197A7012D
:103B5000421B530B9A01AC015695542F442757959D
:103B600047954B545D4FB12CA12C2701421A530AA3
:103B70008E3F6FEF9607B1F1DA01AC56BF4F6A0185
:103B800070E060E0F501EA53FC4E4F018F3F98076B
:103B900079F0F401E60FF71FE491F0E01F01022E27
:103BA00001C0220C0A94EAF7F60164882628248AC8
:103BB0002115310571F0F401E60FF71FE491F0E0F3
:103BC000042C02C0F595E7950A94E2F7FC91EF2BDF
:103BD000EC936F5F7F4F1196FFEFCF1ADF0A6835C6
:103BE0007105A1F6019668E5A60EB11C40585F4F1D
:103BF000A0EBAA16B10409F0BBCF0E943A138FE0E4
:103C000090E00E94AC120F5F1F4F0931110509F0BF
:103C1000CDCE772011F02F9A2D9880E991E00E9467
:103C2000AC120E94AA1281E090E00E94801880FFEE
:103C3000C7CE8AE090E00E9480189FEF980F9E3FC9
:103C400008F0BECE22E330E03093470120934601D6
:103C500028E330E030934501209344010BE010E06D
:103C6000682F85E097E00E94B912C8010E94801871
:103C70000F5F1F4F0131110599F70E943A1388EE2B
:103C800093E00E94AC129CCE0091670120E041E0DD
:103C900060916601809165010E9401107C01809114
:103CA0006D0190916E01892B90916F01892B10927B
:103CB0006D01882349F068EC70E080E090E00E949C
:103CC000B2100ACF1111F7CF00916D0180916C01F4
:103CD0008F5F80936C0180E20E942F13182F811157
:103CE0002CC011E0011101C010E080E40E942F13EC
:103CF000082F882349F0809167018F5F837080933C
:103D000067010E943D13102F80E80E942F13982E08
:103D1000882309F1F701808183FD4DC00E943D1386
:103D20000E943D13809167018130D9F178F0823093
:103D3000F1F180916501815037C080916701815018
:103D40008370809367010E943D13CFCF80916601FD
:103D500081508093660180E10E942F13C82E882332
:103D600009F4C6C00091670120E04FEF6091660141
:103D7000809165010E940110DC018C9183FDB2C02D
:103D80000E943D130E943D1380916701813009F428
:103D90009FC0C8F0823009F4A1C0809165018F5F97
:103DA0009AC0809165018F5F80936501D4CF809127
:103DB00066018F5FCECF64E670E080E090E00E9405
:103DC000B210912CC8CF809166018F5F80936601FD
:103DD00066E671E085E691E00E94EA0FCC2009F4E6
:103DE00090C084EA97E10E94431380916501082EF8
:103DF000000C990B0E94171681EA97E10E94431369
:103E000080916601082E000C990B0E9417168FE90D
:103E100097E10E94E9130FE817E144E050E0B80190
:103E2000CE0101960E9487212A8180916601B0E12E
:103E30008B02C001112430916501830F911D37FD64
:103E40009A9528171906D9F569E577E185EB96E08B
:103E50000E94201289816EE477E1813011F066E4DE
:103E600077E185EB96E00E94D71363E377E185EB7A
:103E700096E00E9420128B810E94241460E377E177
:103E800085EB96E00E9420128C810E9424146EE241
:103E900077E185EB96E00E94D71385EB96E00E94D0
:103EA000D31389819B81813029F5909365018C81A1
:103EB0008093660180916B0182FD30926D010C5FF1
:103EC0001F4FEFE9F7E1E017F10709F0A6CFF3CEB6
:103ED000809165018150809365017ACF8091660160
:103EE000815074CF64E670E080E090E00E94B210F0
:103EF000C92C6ECF80916701890F83708093670111
:103F0000D9CF88E00E942F13C82E882309F4DACE77
:103F1000D7014C900E94721466E877E185EB96E039
:103F20000E942012842D0E94EE1385EB96E00E94E1
:103F3000D31342FEB7C0870101571140202E84E100
:103F400097E10E944313802F8F70C82ED12CC60199
:103F50000E94171681E197E10E94431302950F70AA
:103F6000802E912CC4010E9417168DE097E10E94CB
:103F7000E91301E712E0F8018081281223C08CEFD9
:103F800096E10E94E913C8010E94AA15D80114966F
:103F90008C91882319F0C8010E944D188091680106
:103FA00018160CF04DC08AEB96E10E94E9138FE9D8
:103FB00096E10115110599F180916C018830E8F0C6
:103FC0008750FCCF0A5F1F4FF2E00D3A1F0798F2AF
:103FD0008FEC96E10E944313C6010E9417168CECE9
:103FE00096E10E944313C4010E9417168AEC96E1E1
:103FF0000E94E91310E000E0C9CF2091690190E030
:10400000820F911D27FD9A95F8019281981B92834A
:1040100030926E01C8010E94AA158FE896E10E94B5
:10402000E91388E00E942F13882331F080916C01FE
:104030008F5F80936C01F5CF0E941C160E941C16A6
:10404000D80112968C9112971816ECF414968C9154
:10405000811109C06AEF70E080E090E00E94B21028
:10406000C8010E944D180E9472146BE677E185EB3F
:1040700096E00E942012842D0E94EE1385EB96E0BC
:104080000E94D31318CE84E797E10E94E913F70149
:10409000108280916B01D80115969C91892B809399
:1040A0006B01E1CF01E116E1B42DBC7F9B2E46E010
:1040B00050E0B801CE0101960E948721898190E0ED
:1040C0008F589E4FE816F90609F0FBC08A819812B6
:1040D000F8C068EF75E185EB96E00E9420128D2D07
:1040E0000E94241466EF75E185EB96E00E94D713D9
:1040F00065EE75E185EB96E00E94D7136DEC75E1F6
:1041000085EB96E00E94201289810E942D1465EBB8
:1041100075E185EB96E00E9420128A810E94EE13E1
:1041200085EB96E00E94D3136DE975E185EB96E08F
:104130000E9420128B810E94EE1385EB96E00E9474
:10414000D31365E875E185EB96E00E9420128C811F
:104150000E94EE1385EB96E00E94D3136DE675E1A5
:1041600085EB96E00E9420128D810E942D1465E55A
:1041700075E185EB96E00E9420128E810E94EE137D
:1041800085EB96E00E94D31385EB96E00E94D31353
:10419000E8E39E1609F45CC0F0E89F1265C089E46C
:1041A00095E10E94E9138C8190916B01982B90937B
:1041B0006B01823061F4E1E7F1E09191903119F403
:1041C000DF0111971C9232E0E137F307B0F380FF73
:1041D00004C086E395E10E94E9138C8181FF04C04D
:1041E00086E195E10E94E9138C8182FF04C087EF8C
:1041F00094E10E94E9138C8183FF04C088EE94E16E
:104200000E94E9138C8184FF04C086ED94E10E9432
:10421000E9138C8185FF04C089EB94E10E94E913C6
:104220008C8186FF04C080EA94E10E94E9138C81AE
:1042300087FF04C083E894E10E94E91390916B0129
:1042400094FF2EC020916C012930A8F02850FCCF9B
:1042500080916B0183FF0DC0D7011C9280916B018F
:10426000877F80936B01EACF80916B019C81892BC2
:10427000F8CFC12CE3CF80916801885F820F8093D3
:104280006801905190936B0168E270E080E090E0EB
:104290000E94B21064E170E080E090E00E94B210F1
:1042A000CC2061F08A81481A8B81482AF70140822C
:1042B000ED81F0E0EB59FE4F8E8184870E947214ED
:1042C000FACCD3940A5F1F4FF5E1DF12F0CEF3CCA6
:1042D00080917001883030F48F5F809370010E946C
:1042E0001C16F6CFA5E6B1E0F5011D923197E9F76E
:1042F0000E941C1688E00E942F138823D9F340E007
:1043000050E0452B09F488CB0E94000081CBFB01D3
:10431000DC0102C005900D9241505040D8F708953D
:10432000F999FECF92BD81BDF89A992780B508957D
:10433000262FF999FECF1FBA92BD81BD20BD0FB6C1
:10434000F894FA9AF99A0FBE01960895A1E21A2EEE
:10435000AA1BBB1BFD010DC0AA1FBB1FEE1FFF1F29
:10436000A217B307E407F50720F0A21BB30BE40B79
:10437000F50B661F771F881F991F1A9469F76095C0
:104380007095809590959B01AC01BD01CF0108957A
:10439000EE0FFF1F0590F491E02D0994F894FFCFE4
:1043A000FFFFFFFF00E100000000000000C180816E
:1043B000000000000000000A1289114A123F12900A
:1043C000124E126C1200000000B9125C117A1379BF
:0C43D000130D0A006E6F00796573000089
:00000001FF
