:1000000066C975C974C973C972C971C970C96FC924
:100010006EC96DC96CC96BC96AC969C968C9000074
:10002000000C18067E43B043F061F031B80EFC0FAF
:10003000EE1FC033C04DC05F807F005C0008280405
:10004000840A00000000FFE2E7E1813000080118A7
:10005000070C078003C001E000C011001F001F0053
:100060003F007F00C3A301E001E07BF0FFFF000041
:1000700000000000600C00103410306A3824E82FB3
:10008000FC0F2024E82F306A38103410600C000078
:100090000000FFFFFF9FF3FF0FC1EF8781C78300C1
:1000A000800100800100800100808300808781C77B
:1000B0000FC1EF9FF3FF000000007077005055FC68
:1000C0007577DC7177DC7577DC7177DC7577DC71DF
:1000D00077DC7577DCF177DC3576DC3176DCF5774B
:1000E000DC7177DC7577DC7177DC7577DC7177FC38
:1000F0007577005055007077000000000000FF0782
:1001000000FF0300010000010000010000010000E9
:1001100001000001000001000001000001000001D9
:1001200000000100000100000100000100000100CA
:1001300000010000010000010000010000FF0300B9
:10014000FF0700FFFFFF0000000077778057554052
:100150007777407777407777407777407777407742
:1001600077408777402776406776402776408777C5
:100170004077774077774077774077774077774059
:100180007777805755007777000000000000FF0068
:10019000007F00003F00001F00001F00001F000044
:1001A0001F00001F00001F00001F00001F00001F95
:1001B00000001F00001F00001F00001F00001F00A4
:1001C000001F00001F00001F00003F00007F000014
:1001D000FF0000FFFFFF00003C3C3C3C3C3C0000BB
:1001E000000000000000000000000000000000000F
:1001F00000000000000000000000000000003C3C87
:100200003C3C3C3C000000000000000000000000FE
:1002100000000000000000000000000000000000DE
:10022000000000000000000000000000C5B87B379F
:1002300046078000000000000840D7FAFFBFD60D37
:10024000A0C7F8FF3FC60DA0EFFDFF7FEF0D100226
:10025000800004400CC0FFFFFFFFFF0DD0FFFFFF39
:10026000FFFF01E8FFFFFFFFFF0D00100008000186
:100270000CE8FFFFFFFFFF0DECFFFFFFFFFF0DE6A8
:10028000FFFFFFFFFF0D0C011000001000EAFFFF51
:10029000FFFFFF0DECFFFFFFFFFF0DE8FFFFFFFF7C
:1002A000FF0D0080000F00010EE8FFFFF9FFFF0DBA
:1002B000D0FFFFF9FFFF01C0FFFFF9FFFF0D1000A6
:1002C000049900080CA0FFFFE1FFFF0DA0FFFFE174
:1002D000FFFF0D40FFFFFFFFFF0D8000000000004B
:1002E0000800F7DE7B7777070000018080000000C0
:1002F000000000000000FFFFFFFFFFFFFFFFC7F847
:10030000FF3FC6FFFF0400000082E07F0000000006
:1003100000E03F0000000000E01F0000000000E0DF
:100320000F0000000000E00F0000000000E00700E8
:1003300000000000E0070000000000E007000000EF
:100340000000E0030000000000E0030000000000E7
:10035000E0030000000000E0010000000000E000F9
:100360000000000000E0010000000000E0000000CC
:10037000000000E0010000000000E00300000000B9
:1003800000E0030000000000E0030000000000E0C7
:10039000070000000000E0070000000000E0070088
:1003A00000000000E00F0000000000E00F0000006F
:1003B0000000E01F0000000000E03F00000000001F
:1003C000E07F0000000000E0FF0001808000E0FF0F
:1003D000FFFFFFFFFFFF0000000000000000000023
:1003E0000000FEFFFFFFFF3FFEFFFFFFFF3FC000DB
:1003F00000000003C00000000003C0000000000374
:10040000C00000000003FEFFFFFFFF3FFEFFFFFFF5
:10041000FF3FC00000000003C00000000003C00058
:1004200000000003C00000000003FEFFFFFFFF3FCD
:10043000FEFFFFFFFF3FC00000000003C000000000
:100440000003C00000000003C00000000003FEFF26
:10045000FFFFFF3FFEFFFFFFFF3FC0000000000364
:10046000C00000000003C00000000003C000000046
:100470000003FEFFFFFFFF3FFEFFFFFFFF3FFFFF09
:10048000FFFFFFFF0100000000C00000000000802F
:100490000000000000800100000000C01FFEFFFF00
:1004A0007FF81FFEFFFF7FF80100000000C0000082
:1004B000000000800000000000803FFFFFFFFFFC05
:1004C0003FFFFFFFFFFC3FFFFFFFFFFC3FFFFFFF82
:1004D000FFFC0000000000800000000000803FFFE3
:1004E000FFFFFFFC3FFFFFFFFFFC3FFFFFFFFFFCA5
:1004F0003FFFFFFFFFFC0000000000800000000045
:1005000000800100000000C01FFEFFFF7FF81FFEFB
:10051000FFFF7FF80100000000C000000000008025
:10052000000000000080380000C0450700440000C3
:10053000300018008203000800200039040004FE87
:10054000400029180082FF8300396000E1EF0701B5
:10055000828381E0E70702440C46E8F72F04383035
:1005600048E4F36F0400C030D4FB47080000339622
:10057000FBD30838001C36FFD90844C01373E1DCF4
:1005800011823F1CF340DE11390010F3C0DF112946
:100590008011FBC0DF11397E1E9B40DE1182011EDF
:1005A000CBE1D811448011F3FFD311386030F2ED64
:1005B000DF0870182CF6EDDF08880423E4CD4F081F
:1005C00004C340ECDC6F04723040689E2F04520874
:1005D0008060BF0702720400E1FF03010403008290
:1005E000FF830088000004FE400070000008002027
:1005F0000000000030001800000000C045070000A7
:10060000000000000000C7FFFF3F00F8FF83FFFF6E
:100610000F00E0FF01FCFF0700C0FF00F8FF030030
:1006200080FF00E0FF010000FF0080FF000000FEEF
:1006300001007E000000FC830338000000F8C70FB3
:1006400030000000F8FF3F00000000F0FFFF000056
:100650000000F0C7FF03000000F0833F0C00000023
:10066000E0010000000000E0000000000000E000E9
:100670000000000000E0008001000000E001FE0139
:10068000000000E0837F00000000E0C71F000000C2
:1006900000F08F0710000000F007031C000000F0BE
:1006A00003003F000000F801C03F000000F801F027
:1006B0007F000000FC01F8FF000000FE03FCFF01CA
:1006C0000000FF07FFFF030080FF8FFFFF0700C050
:1006D000FFFFFFFF0F00E0FFFFFFFF3F00F8FFFFFE
:1006E000FFFFFFFFFFFF367740766C706E367407B2
:1006F0007C3F2C3F601F6C0AD81A58181802F00A69
:10070000C00EF00ED006E008B00BD81AD818601A48
:1007100018065C177C3D603F6C3E6E786E760E0668
:100720006E67E400DC368016D008B00AB00AC00A52
:100730001816EC3468366E4EE40DE262EEEC0EEE06
:100740006EEEEC0EE060E6EEEEEE0EEE4E66E60EBF
:10075000E0E0E6ECEEEE0ECE6E0EEC6CE0E0EEEEDF
:100760008EEEE07BDF03807FFF02407AEF03C07BE9
:10077000EF01C03B0B00C047EF018077EF01807FA6
:10078000EF018071FE010074F0010077F600007F38
:10079000FE00007DE500007F0F00007F7F0000600D
:1007A000F7000076DF000077FF00005FF200007DB9
:1007B000F4008077FE018047EB008037EB0080700B
:1007C0000F00007BEF01807BFE01C07BF102C05B6C
:1007D000FF02C07FFE03E07BCE03FC007E00F8F941
:1007E0003E1F00FCBE0FF0DD9E0F60FBD606C0333F
:1007F000DE03C0C31C0080F7E80100D0E6000077EC
:10080000EE00000E6E0000AE4E0000F1EE0000960D
:10081000E00080F75E0080F89E02C0F3DE03E00B8C
:10082000A607E0FCB00300FD2E0CF8ED7F1FFCFED8
:100830007E37FE3C7F00FE7C7F7EBE7C7F7BFE7E23
:100840003E777E7E007F7C7F1E7F007F7F7F7C7E69
:100850007F7F7C7C7F7FFE307F3CFE087F00F63C04
:10086000773EFE7E7F7EFE7E7E7FDE7E3E7B7E7ED0
:10087000007F7C7E3C7F006E7F3F787E7F3FFE7EE8
:100880007F7FFE3E7F7EFE0C7700FE307F3CFE7C4D
:100890007F7FFE7E7F7FFE7E7F7F7E7E3C777C7EBD
:1008A000007F187E3C7F807C7E7FFC7D7F7FFE39D1
:1008B0007F3EFE007F00DE3C7F3EEE7C7F7FFE7E43
:1008C0003F7FFE7E3F7FFE7E1E5FFE7E007FFE6CD2
:1008D0003E777C6E6E7F00767F7F1C3E7F7EFE00C3
:1008E0007F3CF0FDFC013F1F0000F0F7013EFF1FC1
:1008F000FF07E0FFF97FFF9FF707C0FFFD7FFFCFF6
:10090000FF03801FF87FFEE7FF0300C0F97D00E0D2
:10091000FF0100FCF37BFCE3F70000FEF77FFEF72E
:10092000FF00009EF77FEFF77F0000FCEF7FDF07FF
:10093000000000FCEF3FFFE71F0000F8E307FFF3B4
:100940001F0000001838FEB90F0000C09F7F00F89C
:10095000070000E0DD7FFEF0030000C0BB77FF0171
:10096000000000C0BF7DFFFD030000809F7FFDFEF3
:1009700001000000007FDFFE000000003F7F7EDE00
:10098000000000007EFF387F00000000FC3E063FB4
:1009900000000000FCFE0E3F00000000007F707EA3
:1009A000000000007E00FE0000000000773FFF70A6
:1009B00000000000BF7FEFFE01000000807FFFBD50
:1009C000010000C08F7FFEFC030000E0DF7700FC29
:1009D000070000F0DD3FFCF0070000F01F00FE0301
:1009E000000000F08F3FBFC30F000000C07FFFE793
:1009F0003F0000F8E17FFFF73E0000FEF37DFFF7C8
:100A00007F0000FFF77E3EE0FF0000D7F77FC0E3E6
:100A1000E70080FFF33FFEE7FF01C0FF03307FCF19
:100A2000FF00C0FFF1037F9F7F008018F83FFF1F8A
:100A300000000067FC7FFF1DFF07E0FFFE7FFFBF98
:100A4000FF0F0078FC3FFF9FFF0F80FFFC3FFF9EE2
:100A5000FF0FE0FFF83FFF9EFF1FF0FFF19FFF9D9C
:100A6000FF1FF0FC0180FF9F7F1F70FF0180FF9F31
:100A7000FF1FF8FFF18FFF9FFF1FF8FFF91FFF1FF8
:100A8000FF1FF8FFFD3FFE1F0E0CF8FFFD3FFE0F9E
:100A9000C000F8FFFD77EE0FFF03F8FFFC6FFE8745
:100AA000FF07F0FFFC7FFCC3FF0FF0FFFCFFF8C166
:100AB000FB0FF0FFFEFF00E0F70FF0FFFEFF00E08E
:100AC000FF07F0FFFE7FC0C3FF07F07FFE7FE087D8
:100AD000FF07E03FFE7FF88FFF07C007FE7FFC1F88
:100AE000FF070000FE7FFC1FFF0F0078FC7FFC1F4C
:100AF000FF0FC0F3DC7FFE9FFF0FE0F7DC7FFE9F60
:100B0000FF1FF0EFFD7FFE9FFF1FF0EFFD7FFEBF99
:100B1000FF1FF0FFF93FFF3FFF0FF0FFF13FFF3FE7
:100B2000FF0FF8FF011FEF3FFF0FF8FF0100DF3F4E
:100B3000FF0EF8FFE100DF3FFE07F8FFF11F7F3FE8
:100B4000E007F8FFF93FFF3FC003F0FFF93FFF3F29
:100B50000E00F0FFF97FFF1F1F00F0FFFD7FFF1F5A
:100B6000FF03F0FFFD7FFF1FFF07F0FF3D7FFF8FBB
:100B7000FF0FF0FFFD7EFE87FF1FE0FFFD7D7C8005
:100B8000FF1FC0FFFC7F0080FF1F007CFC7B0087F5
:100B9000FF1F0000FC7FFC8FFF1F8003FC7FFC8F8A
:100BA000FF1FE07FFC7FFE9FFF0FE0FFFC7FFE9FAB
:100BB000BF1FF0FFFC7FFE9F7F1FF0FFF93FFE9FEE
:100BC0007F1FF0FFF93FFE9FFF1FF0FFF11FFF8F18
:100BD000FF0FF8FFE101FF97FF0FF8FF0100FF177C
:100BE000FF0FF8F7010EFF1BCE07F8FFE13FFF1FD5
:100BF0000003F8FFF17FFF1F0000F8FFF97FFF1FE0
:100C0000780078FFF97FFE1FFE01F0FEFD7FFE1FDA
:100C1000FF0FF0FFFD7FFE8FFF0FF0FFFD7FFE87D0
:100C2000FF1FF0FFFD7F1C80FB1FE0FFFDFF00802A
:100C3000FF1FC0FFFDFFC087FF1FC0FFBCFFF88F75
:100C4000FF1F0078C8FFFC8FFF1F0000FC7FFE9F86
:100C5000FB1FC007FC7FFE9FFF1FE07FFC7FFE9F06
:100C6000FF0FF0FFFC7FFE9FFF0FF0FFF87FFEBF3E
:100C7000FF0FF0FFF97FBEBFFF0FF0FFF13FDE3F38
:100C80007F0FF8FE013EDF3FFF0FF8FE0130EF3F20
:100C9000FF07F8FDF103EF7FFE07F8FBF90FEF7F89
:100CA000FC03F8FFF91FFF7FFC00F8FFFD7FFF3F0B
:100CB0003800F8FF7D7FFF1F0003F8FF7D7FFE1FD8
:100CC000C007F8FFFD7EFE0FFE0FF8FFFD7FFE0759
:100CD000FF0FF0FFFD7FFC80FF0FF0FFFC7F008027
:100CE000FF0FF0FFF87F008EFF0FE03FF83FF89F07
:100CF000FF1FC003F83FFCBFFF1F0000FC3FFEBF0B
:100D0000EF1FFF3FFE7FFE3FFE7FFE7F7F7FFF7F67
:100D1000FF7EFCFFBE7FFFBFFF3FF8FDFE3FFF3EB3
:100D2000FF0FF8FF7E7FF7BFFF1EFCFDFE7CFFBFBD
:100D3000FF3EFE7FFF7FFE3FFF7FFF3FFE3FFC0F3A
:100D4000FE7FAED5F0A83FD300408D142000A1C88F
:100D5000DA12813FD922DB20A4A62EAF04587800F6
:100D60001500075878001200077858001200148008
:100D7000A00114A01680A04016A02CC8C8802CC8C2
:100D80004058780012004078580012E86880A002AD
:100D900068A06E80A0146EA077587800F70077786E
:100DA0005800F700C0587800C300C0785800C4E865
:100DB000C780A009C7A0C8580000CA00CB380000EF
:100DC000CB00F158780091E8F17858009100F35881
:100DD0007800C3E8F3785800C400FD5878007D001F
:100DE000FD7858004D0001B7050D01D7050B022A0B
:100DF00002000252010002870300302C03FA0100B6
:100E0000182C03FC01003C6C28070100532C05FC46
:100E100001006D4C0F040060874C0C030060A38C34
:100E20000FFF0130AB8C0F010070E34C0C0300602E
:100E3000ED4C0C03006018181818581818001818F2
:100E40000000000000180000E8008018801800185A
:100E500000181818001800001800181818000018BA
:100E60000018C81800180018000018000000181812
:100E70000018001800185818001800001800001872
:100E8000001800E8001818000000180018000018EA
:100E900000181818181800001800000018188018FA
:100EA0000000000080E818180000181818581818DA
:100EB000181818E818181800000018001800180072
:100EC00018000000000018001810180000000000B2
:100ED00018E81800180018001880180018001800EA
:100EE000180018000000180000181800000000008A
:100EF000181800001800581810E8E800188058006A
:100F00000038001800000000001818000000000061
:100F10001800001800181818000018001800180011
:100F200018001800000000581858180000000000B1
:100F3000181818581800FFFFFFFF55AA8824000052
:100F40000000000000004C1C100501020581106C1F
:100F50002000070102052605E81C0806010205D647
:100F6000033820080701030C16025810180101026B
:100F700008F60178101801010208D6018018200334
:100F800001036346018C1820030103634601A01886
:100F90002003010363B600C80C20030102636E0046
:100FA0002C1428020102631E00020D00030700FF3B
:100FB0000008020D5C5F0700010408420A000307F5
:100FC00001FF5458420A045B0701000058420A5CC2
:100FD0005F0701010058E20804190701FF002CE235
:100FE00008465B070101162C320800192502FF1282
:100FF0002C32081A45250200002C3208465F2502D3
:1010000001002CDA071A242502FF0016DA073B45F7
:101010002502010B166207000E2502FE001E620764
:10102000515F2502020F1E3607000E3403FE07161D
:1010300036070F243403FF00163607253A34030021
:10104000001636073B5034030100163607515F3453
:1010500003020016220725293403FF000A2207365F
:101060003A340301050AE6060F1D3403FE001EE6AE
:101070000642503403020F1E000000000000000072
:1010800000003E00000000C107000080007804005E
:10109000003F800B0000C0030A0000007C08000035
:1010A000008010000000801000000000060000001A
:1010B000800F000000F0010000003C0040E001074C
:1010C0000060F00F7D0820380FF55D2D382955138D
:1010D00000FCAF030000FC29F90F003C0FD91800F9
:1010E000380F35302DF807776620E0071369600068
:1010F0000076664000003030000000D81800000084
:10110000F80F0000000000000000000000FFC1FF19
:10111000FFFFFF00F8FFFF7F0080FBFFFF0000F0F4
:10112000FFFF3F00F0FFFFFF03F0FFFFFF7FE0FF47
:10113000FFFF7FE0FFFFFF7FE0FFFFFF07E0FFFF14
:10114000FF01E0BF0FFE00FC1F077080E30F03608C
:10115000002280034000008001000000C001000068
:10116000E0FF010000C0FF01400000C0016000007E
:10117000800370000080037000000F0FF800001F54
:10118000FFFF0100BFFFFF0380FFFFFF03C0FFFF62
:10119000FF03E0FFFFFFFFFFFF20383E38203E1C2B
:1011A0001C0808020E3E0E0208081C1C3E18008097
:1011B000DDDDDDDD010C018000000000020C81108E
:1011C000000E280002188190080430000230BF9FF2
:1011D0001C0A187F003081903C0E2C400218B5107C
:1011E0007804063F020C018F3C0A0000000C398095
:1011F0001C0E1EBA021808860804220002143128A8
:10120000000A5E98023E818E000E22A40022B9A040
:1012100000041E240200A0AE000A00800200F902B1
:10122000000E06BF020001AC000429A4000001A0CA
:10123000000A5100020000A4000E29980200012AB1
:10124000000406A40200019E000A00A400220080FF
:10125000000E1C98023E010C000422006214018E54
:10126000000A2AB88218008A000E2284600C0180CD
:1012700000041C84020C0106000A0080CA18008ABF
:10128000000E079CAA30018C00047D6010300080A5
:10129000000A573C8218010E000E0000721C0082EA
:1012A000000000008A0C008CDDDDDDDD7100010135
:1012B000020102020301020203020303040001030C
:1012C000000F0007050400000203000102041124BE
:1012D0001FBECFE5D2E0DEBFCDBF21E0A0E6B0E08B
:1012E00001C01D92AF3AB207E1F7A7D35FC688C627
:1012F0003F924F925F926F927F928F929F92AF92A6
:10130000BF92CF92DF92EF92FF920F931F93CF93F2
:10131000DF93B82EA62EE901CF80D884002339F0C0
:101320008B81698170E090E030D6C80ED91E50E004
:10133000FA01E653FD4EA491FA01EA53FD4E949151
:10134000FA01EE53FD4EE491A91608F482C0EA15A5
:1013500008F47FC08A2F6A2F0FD6982E4C0F5D1F7E
:10136000FA0183802A2F30E0F901E354FD4EE49125
:10137000BA81CB811C2F110F110F110F1B0F8A2D5A
:10138000891B6A2F660F660F660FF6D5482FD0E0CF
:101390006B2D70E0CE01F9D5B901F7D568E0E62EE6
:1013A000F12C712C66246394AB2EB12C6E2F70E05F
:1013B0004B1778F1411768F5242F30E02A193B09C3
:1013C00037FF02C0295F3F4F53E0359527955A9567
:1013D000E1F7280F392F311D2C0D3D1D512C50E008
:1013E000F42FF7704F2EA515B9F0F9013490E32DC5
:1013F000F0E0042C02C0F595E7950A94E2F7E623A5
:10140000F723E355FD4EE4915E0F2C0F3D1F5394DF
:10141000EACF50E00111592D4A0F581508F07628EF
:10142000660CF1E0EF1AF10809F0C2CF872DDF91C9
:10143000CF911F910F91FF90EF90DF90CF90BF90D1
:10144000AF909F908F907F906F905F904F903F9064
:101450000895702E7194EACFDC01FB018C9187FF17
:1014600002C0805F8C938C91803114F080518C93FA
:10147000808187FF02C0805F80838081803114F08B
:101480008051808308950F93CF93DF9300D0CDB721
:10149000DEB7013059F130F0023021F1841B89832D
:1014A000621B27C0641B6A83820F8983BE016E5F43
:1014B0007F4FCE010196D0DF8A81082E000C990B58
:1014C00024E0880F991F2A95E1F72981820F911D49
:1014D00027FD9A9585599F4F0F900F90DF91CF91DF
:1014E0000F910895640F6A83821BDFCF840F898375
:1014F000620F6A83DBCF8F7787B987B187B9369A56
:101500003699FECF84B195B10895C098C29AB29B26
:10151000FECF85E08A95F1F70000C09A8AE08A95AF
:10152000F1F700C008958EB98BE29AE09A95F1F731
:1015300000C08DB9B29BFECF95E09A95F1F70000FF
:101540008DB9769BF2CF8AE08A95F1F700C08FB112
:101550009FEF9FB9B89A0895C2988FB980EFE3DFE3
:10156000B8988EEFE0DF809581700895C29AB29BA3
:10157000FECF85E08A95F1F70000C09885E08A9556
:10158000F1F70000C298C09A779B0BC0C29888E719
:101590008FB980EFC8DFB8988EEFC5DF8095817076
:1015A000089580E00895B1DFE1DF80E0D5CFADDFC1
:1015B000DDDF80E4D1CF815028F095E09A95F1F7F6
:1015C0000000F9CF08951F93CF93DF93162FC0E04B
:1015D000D82FD095C49A8D2FEEDFC4988D2FEBDFD6
:1015E000CF5F1C13F7CFDF91CF911F91089561E07A
:1015F00084E6E9DF61E088ECE6DF2FEF81EE94E03E
:10160000215080409040E1F700C00000089586B36B
:101610008695817090E008952F923F924F925F924D
:101620006F927F928F929F92AF92BF92CF92DF92F2
:10163000EF92FF920F931F93CF93DF93CDB7DEB757
:1016400065970FB6F894DEBF0FBECDBFB0DF70ED6B
:10165000372EB12CA12CEFEA4E2EE1E05E2E1A2D92
:10166000A7EAB1E0E8E01D92EA95E9F769EAE62E1B
:101670006FE0F62E49E050E0B701CE010A9673D430
:101680008A859B85892B09F45FC08C85082E000C08
:10169000990BA816B9060CF453C08D85082E000CC2
:1016A000990B8A159B050CF44BC0D0906000C0903C
:1016B00061000091620028894F856C2D8D2DE3DE3D
:1016C000DC018C9184FF3CC02E85A22F022E000CE1
:1016D000BB0B54E0B595A7955A95E1F72F702F5F96
:1016E0002A1B8C85912F981B3A898989DC0CD0FCA8
:1016F00025C08095830F891B90E0622F022E000C7D
:10170000770B43D44A855B85840F951FA955BE4F3F
:10171000117021503F852F3FC1F0FC014491E32F10
:10172000EE0FE10F30916A00E30FFF27FF1FEA5C25
:10173000F04FE491E423ED930196EBCF890FDCCFDA
:10174000F9E0EF0EF11C96CF33E0E32EF12C2E2CB6
:10175000E114F10409F473C046E4642E4FE0742EE2
:1017600049E050E0B301CE010196FDD3CA80D12CEF
:101770000E2C02C0D594C7940A94E2F7C6019927AB
:1017800020E330E0281B390BA216B3060CF44AC044
:101790008F968A159B050CF445C00091620020E0ED
:1017A0004E2D60916100809160006DDEDC018C91B6
:1017B0008C7F9981891336C037EA832E31E0932ECE
:1017C000D12CC30C01E09E012F5F3F4F422D6D2DA8
:1017D0008C2D8EDD182FF40180818123808300E021
:1017E0009E012F5F3F4F422D6D2D8C2D81DDE091AD
:1017F0006A009F85E90FFF27FF1FEA5CF04FE49125
:10180000E823F1E02F1205C010958091680018239D
:10181000E127D4018C91E82BED934D01D394B8E0EE
:10182000DB12D0CFE9E06E0E711CF9EA6F16FFE013
:101830007F0609F095CF81E0E81AF10888CF07EA22
:1018400011E0D8019D918D0180916700892784DE88
:1018500040165106B1F7BFEFAB1ABB0A3394E0E66E
:10186000AE16B10409F0FBCE50DEA1DE8EEFE82EFD
:10187000FF24FA9422242A9493E1492E90E1592ED0
:1018800027EFA22E2FE0B22E33243394320CF32D07
:10189000FF0FFF0FFF0FFC8B10E000E084EF8E0DB9
:1018A0008D8B6701A2E0CA0ED11C32016C187D0835
:1018B00045018C189D08B2E0BE0DBB8BA02FEC89B2
:1018C000E00F30916600832F8170802B20E0B1F013
:1018D000F0E0E355FE4E2491011110C0ED89E53092
:1018E00068F48091620090E065E070E04ED38C0D6A
:1018F0009D1DFC01E557FE4EE4912E2B40916300A7
:10190000FDE1F215A0F1A43009F073C0842F47FF68
:1019100002C081E0840F8595082E000C990B8E156E
:101920009F050CF420E08091690028271416A4F18B
:1019300022C0AB89A43118F032FDF8CF63C0BB8957
:10194000BE3018F031FDF2CF5DC0EB89E83018F001
:1019500036FDECCF57C0FB89F13041F335FDE6CFC2
:1019600051C0A63021F4330F330B2323DFCF1416DD
:101970009CF0A33088F08BE18E1570F0C80168E30D
:1019800070E003D3F301E80FF91FE4912E23F40173
:10199000E80FF91FE4912E2B822FDEDD0F5F1F4F22
:1019A0000830110509F08ACFAFEFEA1AFA0A232CA2
:1019B000BFE13B1269CFA9DD109268001092690067
:1019C00065960FB6F894DEBF0FBECDBFDF91CF9105
:1019D0001F910F91FF90EF90DF90CF90BF90AF904D
:1019E0009F908F907F906F905F904F903F902F903F
:1019F0000895A53009F0B5CF8B898A3108F499CFC5
:101A000033FD94CF20E092CFFC0192B7983010F0D4
:101A10009750FCCF838120916500821B890F181697
:101A20005CF490916300981B909363006AE082E3FA
:101A3000CADD8FEF80936900EFCDCF93DF9300D0A5
:101A400000D000D01F92CDB7DEB783E08ABD83BF40
:101A5000789480E48CBD9FEF9DBD87EC80BF87E8C4
:101A600086B987B3857D87BBBC9AC09AC29ABA9A59
:101A7000B89A9FB98AE28DB980EF8EB994DD02E4FD
:101A80001DE0F801849168DD0F5F1F4FFDE00C350C
:101A90001F07B9F73ADD87DD80EB5EDD80E15CDDB5
:101AA00080E05ADD32DD83DD00E011E080E054DDCE
:101AB00080E052DD80E050DD80E04EDD0150110914
:101AC000A9F723DD70DD80E247DD81E045DD81E2BD
:101AD00043DD80E041DD8FE73FDD82E23DDD80E0F8
:101AE0003BDD87E039DD11DD40E6442E40E0542E39
:101AF0005FE4A52EBB24B394DD24D3946AE0C62E04
:101B000073E0772EEAEF8E2EEDE09E2E66246A9427
:101B1000F201C50111920197E9F7D0926000D092CD
:101B20006100D0926200C09263007092640040E055
:101B300051E066E37EE08BE690E015D24CE350E0A6
:101B40006AEF7DE08BE691E00ED2EBE6F1E0818179
:101B5000A081B0E0A05ABF4F1B968C93369691E0BF
:101B6000E73AF907A1F71ABCD3BEE8E0E0936A00B0
:101B70008091630018160CF0E3C18091660085FD2A
:101B8000C092640086FD7092650046DD80916A0017
:101B9000882321F0815080936A00EACF009162008F
:101BA00020E041E060916100809160006CDC7C018C
:101BB0008091670090916800892B90916900892B32
:101BC000109267008111D4CF0091670080E893DC08
:101BD0008E5E9240883C910580F111E0011101C0B8
:101BE00010E080E888DC855F9140893F910540F4F2
:101BF000809162008F5F837080936200F8DC11E057
:101C000083E879DC855F9140893F910508F05EC0EB
:101C1000F701808183FD4EC0EADCE9DC809162003F
:101C20008130F1F198F0823009F440C08091600079
:101C3000815039C0112341F29BCF809162008150C5
:101C4000837080936200D3DC11E0CBCF8091610080
:101C50008150809361003324339483E84CDC8E5EA2
:101C60009240883C910508F040C00091620020E05D
:101C70004FEF609161008091600005DCFC01808184
:101C800083FD6FC0B4DCB3DC80916200813031F140
:101C9000F8F0823009F461C0809160008F5F21C04C
:101CA000809160008F5F80936000D5CF809161004C
:101CB0008F5FCFCF61E082E386DCFFEF21EE84E02F
:101CC000F15020408040E1F700C00000312CC5CF2A
:101CD000809161008F5F8093610005C080916000FA
:101CE0008150809360003324339461E670E080E695
:101CF00090E0B2DB332009F448C006EE1DE044E07A
:101D000050E0B801CE0101962ED12A818091610068
:101D1000082E000C990B34E0880F991F3A95E1F7D3
:101D200030916000830F911D37FD9A952817190691
:101D300071F48B819981913009F5809360008C81D9
:101D4000809361008091660082FD609267000C5F65
:101D50001F4F8016910699F60BCF8091610081503C
:101D6000BACF61E082E32FDCFFEF21EE84E0F15097
:101D700020408040E1F700C00000B7CF90916200A2
:101D8000890F837080936200DDCF41DC892B09F0DD
:101D900051CFF701208022FE4CC0C7018B569040E6
:101DA0000BE611E0F801908189130EC0848188232D
:101DB00011F0C80129DE809163001816ECF482B797
:101DC000883028F08750FCCF0A5F1F4FEBCF20915F
:101DD000640090E0820F911D27FD9A95F801928191
:101DE000981B92836AE082E3EEDB609268000FDC6E
:101DF000892BE9F311DC10DCF801828118167CF4E0
:101E000084818111B5CEFFEF24E38CE0F1502040B6
:101E10008040E1F700C00000C801F6DDA9CEF7015F
:101E2000108280916600F8019581892B809366006D
:101E30009FCE0CE51DE0F22DFC7FFF8346E050E0D5
:101E4000B801CE0101968FD0898190E085599F4FCE
:101E5000E816F90609F06CC08A812F81281368C042
:101E60009091660088E3281609F18C81E0E82E1233
:101E700027C0982B90936600823059F03324339416
:101E80009091660094FF42C022B72930D8F02850C4
:101E9000FCCFEBE6F0E08191803119F4DF0111977E
:101EA0001C9221E0EB36F207B0F3E8CF93FFE8CFC6
:101EB000F701108280916600877F80936600DECFF5
:101EC000892BFBCF80916300885F820F8093630032
:101ED0009051909366006EE184E675DBFFEF23EF8F
:101EE00081E0F15020408040E1F700C000006EE149
:101EF00084E669DB9FEFE9EFF0E09150E040F040CD
:101F0000E1F700C000006EE186E95DDB332061F09F
:101F10008A81281A8B81282AF7012082ED81F0E03E
:101F2000E05AFF4F8E8183876AE082E34CDB20CE4C
:101F30000A5F1F4FFDE0063E1F0709F07FCF18CE56
:101F400080916A00883028F48F5F80936A0064DB98
:101F5000F7CFF201C50111920197E9F75DDB57DB7D
:101F6000892BE9F7D5CDFB01DC0102C005900D926C
:101F700041505040D8F70895002480FD060E660FAA
:101F800011F08695D1F7802D08950024552704C0BF
:101F9000080E591F880F991F009729F076956795AD
:101FA000B8F37105B9F7802D952F0895F894FFCFF8
:00000001FF
